{
  "_format": "hh-sol-artifact-1",
  "contractName": "FontProjectV2",
  "sourceName": "contracts/FontProjectV2.sol",
  "abi": [
    {
      "inputs": [
        {
          "internalType": "contract ISuperfluid",
          "name": "_host",
          "type": "address"
        },
        {
          "internalType": "contract IInstantDistributionAgreementV1",
          "name": "_ida",
          "type": "address"
        }
      ],
      "stateMutability": "nonpayable",
      "type": "constructor"
    },
    {
      "anonymous": false,
      "inputs": [
        {
          "indexed": false,
          "internalType": "bytes32",
          "name": "id",
          "type": "bytes32"
        },
        {
          "indexed": false,
          "internalType": "string",
          "name": "metaDataCID",
          "type": "string"
        },
        {
          "indexed": false,
          "internalType": "address",
          "name": "creatorAddress",
          "type": "address"
        },
        {
          "indexed": false,
          "internalType": "uint256",
          "name": "perCharacterMintPrice",
          "type": "uint256"
        },
        {
          "indexed": false,
          "internalType": "uint256",
          "name": "mintLimit",
          "type": "uint256"
        },
        {
          "indexed": false,
          "internalType": "uint256",
          "name": "launchDateTime",
          "type": "uint256"
        },
        {
          "indexed": false,
          "internalType": "uint256",
          "name": "createdAt",
          "type": "uint256"
        }
      ],
      "name": "FontProjectCreated",
      "type": "event"
    },
    {
      "anonymous": false,
      "inputs": [
        {
          "indexed": false,
          "internalType": "bytes32",
          "name": "id",
          "type": "bytes32"
        },
        {
          "indexed": false,
          "internalType": "uint256",
          "name": "tokenId",
          "type": "uint256"
        }
      ],
      "name": "FontProjectMinted",
      "type": "event"
    },
    {
      "anonymous": false,
      "inputs": [
        {
          "indexed": false,
          "internalType": "address",
          "name": "walletAddress",
          "type": "address"
        },
        {
          "indexed": false,
          "internalType": "string",
          "name": "profileInfoCID",
          "type": "string"
        },
        {
          "indexed": false,
          "internalType": "uint256",
          "name": "createdAt",
          "type": "uint256"
        },
        {
          "indexed": false,
          "internalType": "uint256",
          "name": "updatedAt",
          "type": "uint256"
        },
        {
          "indexed": false,
          "internalType": "string",
          "name": "lensHandle",
          "type": "string"
        }
      ],
      "name": "UserCreated",
      "type": "event"
    },
    {
      "inputs": [
        {
          "internalType": "bytes32",
          "name": "fontProjectId",
          "type": "bytes32"
        },
        {
          "internalType": "address",
          "name": "collaborator",
          "type": "address"
        },
        {
          "internalType": "string",
          "name": "deliverablesCID",
          "type": "string"
        },
        {
          "internalType": "bytes32",
          "name": "fontStreamId",
          "type": "bytes32"
        }
      ],
      "name": "addFontStreamCollaborator",
      "outputs": [],
      "stateMutability": "nonpayable",
      "type": "function"
    },
    {
      "inputs": [
        {
          "internalType": "address",
          "name": "",
          "type": "address"
        }
      ],
      "name": "addressToUser",
      "outputs": [
        {
          "internalType": "address",
          "name": "walletAddress",
          "type": "address"
        },
        {
          "internalType": "string",
          "name": "profileInfoCID",
          "type": "string"
        },
        {
          "internalType": "uint256",
          "name": "createdAt",
          "type": "uint256"
        },
        {
          "internalType": "uint256",
          "name": "updatedAt",
          "type": "uint256"
        },
        {
          "internalType": "string",
          "name": "lensHandle",
          "type": "string"
        }
      ],
      "stateMutability": "view",
      "type": "function"
    },
    {
      "inputs": [
        {
          "internalType": "uint256",
          "name": "createdAt",
          "type": "uint256"
        },
        {
          "internalType": "uint256",
          "name": "launchDateTime",
          "type": "uint256"
        },
        {
          "internalType": "uint256",
          "name": "perCharacterMintPrice",
          "type": "uint256"
        },
        {
          "internalType": "uint256",
          "name": "mintLimit",
          "type": "uint256"
        },
        {
          "internalType": "address",
          "name": "distributionSuperToken",
          "type": "address"
        },
        {
          "internalType": "string",
          "name": "metaDataCID",
          "type": "string"
        },
        {
          "internalType": "string",
          "name": "fontFilesCID",
          "type": "string"
        }
      ],
      "name": "createFontProject",
      "outputs": [],
      "stateMutability": "nonpayable",
      "type": "function"
    },
    {
      "inputs": [
        {
          "internalType": "string",
          "name": "lensHandle",
          "type": "string"
        },
        {
          "internalType": "string",
          "name": "profileInfoCID",
          "type": "string"
        },
        {
          "internalType": "uint256",
          "name": "createdAt",
          "type": "uint256"
        }
      ],
      "name": "createUser",
      "outputs": [],
      "stateMutability": "nonpayable",
      "type": "function"
    },
    {
      "inputs": [
        {
          "internalType": "bytes32",
          "name": "fontId",
          "type": "bytes32"
        }
      ],
      "name": "distributeFontProfit",
      "outputs": [],
      "stateMutability": "nonpayable",
      "type": "function"
    },
    {
      "inputs": [
        {
          "internalType": "bytes32",
          "name": "",
          "type": "bytes32"
        },
        {
          "internalType": "uint256",
          "name": "",
          "type": "uint256"
        }
      ],
      "name": "fontProjectIdToMints",
      "outputs": [
        {
          "internalType": "uint256",
          "name": "",
          "type": "uint256"
        }
      ],
      "stateMutability": "view",
      "type": "function"
    },
    {
      "inputs": [
        {
          "internalType": "bytes32",
          "name": "",
          "type": "bytes32"
        }
      ],
      "name": "idToFontProject",
      "outputs": [
        {
          "internalType": "bytes32",
          "name": "id",
          "type": "bytes32"
        },
        {
          "internalType": "address",
          "name": "creatorAddress",
          "type": "address"
        },
        {
          "internalType": "uint256",
          "name": "perCharacterMintPrice",
          "type": "uint256"
        },
        {
          "internalType": "string",
          "name": "metaDataCID",
          "type": "string"
        },
        {
          "internalType": "uint32",
          "name": "royaltyIDAIndex",
          "type": "uint32"
        },
        {
          "internalType": "contract ISuperfluidToken",
          "name": "idaDistributionToken",
          "type": "address"
        },
        {
          "internalType": "string",
          "name": "fontFilesCID",
          "type": "string"
        },
        {
          "internalType": "uint256",
          "name": "mintLimit",
          "type": "uint256"
        },
        {
          "internalType": "uint256",
          "name": "launchDateTime",
          "type": "uint256"
        },
        {
          "internalType": "uint256",
          "name": "createdAt",
          "type": "uint256"
        },
        {
          "internalType": "uint256",
          "name": "updatedAt",
          "type": "uint256"
        }
      ],
      "stateMutability": "view",
      "type": "function"
    },
    {
      "inputs": [],
      "name": "minFontProject",
      "outputs": [],
      "stateMutability": "payable",
      "type": "function"
    }
  ],
  "bytecode": "0x60806040526040516200001290620001a0565b604051809103906000f0801580156200002f573d6000803e3d6000fd5b506000806101000a81548173ffffffffffffffffffffffffffffffffffffffff021916908373ffffffffffffffffffffffffffffffffffffffff1602179055506000600360006101000a81548163ffffffff021916908363ffffffff1602179055503480156200009e57600080fd5b5060405162005ab338038062005ab38339818101604052810190620000c4919062000271565b60405180604001604052808373ffffffffffffffffffffffffffffffffffffffff1681526020018273ffffffffffffffffffffffffffffffffffffffff16815250600160008201518160000160006101000a81548173ffffffffffffffffffffffffffffffffffffffff021916908373ffffffffffffffffffffffffffffffffffffffff16021790555060208201518160010160006101000a81548173ffffffffffffffffffffffffffffffffffffffff021916908373ffffffffffffffffffffffffffffffffffffffff1602179055509050505050620002b8565b613880806200223383390190565b600080fd5b600073ffffffffffffffffffffffffffffffffffffffff82169050919050565b6000620001e082620001b3565b9050919050565b6000620001f482620001d3565b9050919050565b6200020681620001e7565b81146200021257600080fd5b50565b6000815190506200022681620001fb565b92915050565b60006200023982620001d3565b9050919050565b6200024b816200022c565b81146200025757600080fd5b50565b6000815190506200026b8162000240565b92915050565b600080604083850312156200028b576200028a620001ae565b5b60006200029b8582860162000215565b9250506020620002ae858286016200025a565b9150509250929050565b611f6b80620002c86000396000f3fe60806040526004361061007b5760003560e01c8063ba1a791e1161004e578063ba1a791e14610156578063d2cddda614610160578063e3020a9514610189578063edf53886146101b25761007b565b8063473895b2146100805780634f6210ca146100c7578063657fc0f1146100f0578063b91ecb6d1461012d575b600080fd5b34801561008c57600080fd5b506100a760048036038101906100a29190611059565b6101f3565b6040516100be9b9a999897969594939291906111fd565b60405180910390f35b3480156100d357600080fd5b506100ee60048036038101906100e99190611059565b6103ad565b005b3480156100fc57600080fd5b50610117600480360381019061011291906112e2565b6103b0565b6040516101249190611322565b60405180910390f35b34801561013957600080fd5b50610154600480360381019061014f91906113ce565b6103e1565b005b61015e610759565b005b34801561016c57600080fd5b50610187600480360381019061018291906114b0565b61075b565b005b34801561019557600080fd5b506101b060048036038101906101ab9190611545565b610a0a565b005b3480156101be57600080fd5b506101d960048036038101906101d491906115cd565b610a11565b6040516101ea9594939291906115fa565b60405180910390f35b60056020528060005260406000206000915090508060000154908060010160009054906101000a900473ffffffffffffffffffffffffffffffffffffffff16908060020154908060030180546102489061168a565b80601f01602080910402602001604051908101604052809291908181526020018280546102749061168a565b80156102c15780601f10610296576101008083540402835291602001916102c1565b820191906000526020600020905b8154815290600101906020018083116102a457829003601f168201915b5050505050908060040160009054906101000a900463ffffffff16908060040160049054906101000a900473ffffffffffffffffffffffffffffffffffffffff16908060050180546103129061168a565b80601f016020809104026020016040519081016040528092919081815260200182805461033e9061168a565b801561038b5780601f106103605761010080835404028352916020019161038b565b820191906000526020600020905b81548152906001019060200180831161036e57829003601f168201915b505050505090806006015490806007015490806008015490806009015490508b565b50565b600660205281600052604060002081815481106103cc57600080fd5b90600052602060002001600091509150505481565b600033308b8b8b6040516020016103fc959493929190611724565b604051602081830303815290604052805190602001209050600060056000838152602001908152602001600020600801541461046d576040517f08c379a0000000000000000000000000000000000000000000000000000000008152600401610464906117cf565b60405180910390fd5b6001600360009054906101000a900463ffffffff1661048c919061181e565b600360006101000a81548163ffffffff021916908363ffffffff16021790555060006040518061016001604052808381526020013373ffffffffffffffffffffffffffffffffffffffff1681526020018a815260200187878080601f016020809104026020016040519081016040528093929190818152602001838380828437600081840152601f19601f820116905080830192505050505050508152602001600360009054906101000a900463ffffffff1663ffffffff1681526020018873ffffffffffffffffffffffffffffffffffffffff16815260200185858080601f016020809104026020016040519081016040528093929190818152602001838380828437600081840152601f19601f8201169050808301925050505050505081526020018981526020018b81526020018c81526020018c815250905080600560008481526020019081526020016000206000820151816000015560208201518160010160006101000a81548173ffffffffffffffffffffffffffffffffffffffff021916908373ffffffffffffffffffffffffffffffffffffffff16021790555060408201518160020155606082015181600301908161064c9190611a27565b5060808201518160040160006101000a81548163ffffffff021916908363ffffffff16021790555060a08201518160040160046101000a81548173ffffffffffffffffffffffffffffffffffffffff021916908373ffffffffffffffffffffffffffffffffffffffff16021790555060c08201518160050190816106d09190611a27565b5060e0820151816006015561010082015181600701556101208201518160080155610140820151816009015590505061071d8160a0015182608001516001610b779092919063ffffffff16565b6107438160a00151826080015133606460ff166001610bd590949392919063ffffffff16565b61074c81610c37565b5050505050505050505050565b565b600073ffffffffffffffffffffffffffffffffffffffff16600460003373ffffffffffffffffffffffffffffffffffffffff1673ffffffffffffffffffffffffffffffffffffffff16815260200190815260200160002060000160009054906101000a900473ffffffffffffffffffffffffffffffffffffffff1673ffffffffffffffffffffffffffffffffffffffff161461082c576040517f08c379a000000000000000000000000000000000000000000000000000000000815260040161082390611b45565b60405180910390fd5b60006040518060a001604052803373ffffffffffffffffffffffffffffffffffffffff16815260200185858080601f016020809104026020016040519081016040528093929190818152602001838380828437600081840152601f19601f82011690508083019250505050505050815260200183815260200183815260200187878080601f016020809104026020016040519081016040528093929190818152602001838380828437600081840152601f19601f82011690508083019250505050505050815250905080600460003373ffffffffffffffffffffffffffffffffffffffff1673ffffffffffffffffffffffffffffffffffffffff16815260200190815260200160002060008201518160000160006101000a81548173ffffffffffffffffffffffffffffffffffffffff021916908373ffffffffffffffffffffffffffffffffffffffff16021790555060208201518160010190816109919190611a27565b50604082015181600201556060820151816003015560808201518160040190816109bb9190611a27565b509050507f40d89a11452d8ce4ae18585fec0247a092090ffe984c999b23e4ca7c11d2f5d933858585868b8b6040516109fa9796959493929190611ba1565b60405180910390a1505050505050565b5050505050565b60046020528060005260406000206000915090508060000160009054906101000a900473ffffffffffffffffffffffffffffffffffffffff1690806001018054610a5a9061168a565b80601f0160208091040260200160405190810160405280929190818152602001828054610a869061168a565b8015610ad35780601f10610aa857610100808354040283529160200191610ad3565b820191906000526020600020905b815481529060010190602001808311610ab657829003601f168201915b505050505090806002015490806003015490806004018054610af49061168a565b80601f0160208091040260200160405190810160405280929190818152602001828054610b209061168a565b8015610b6d5780601f10610b4257610100808354040283529160200191610b6d565b820191906000526020600020905b815481529060010190602001808311610b5057829003601f168201915b5050505050905085565b610bd0838383600067ffffffffffffffff811115610b9857610b97611856565b5b6040519080825280601f01601f191660200182016040528015610bca5781602001600182028036833780820191505090505b50610c9b565b505050565b610c308585858585600067ffffffffffffffff811115610bf857610bf7611856565b5b6040519080825280601f01601f191660200182016040528015610c2a5781602001600182028036833780820191505090505b50610e52565b5050505050565b7f6ded40a98fefce321598239a8eb15f9b3846ba525e8925be7d1ec8afa0fcba9b81600001518260600151836020015184604001518560e00151866101000151876101200151604051610c909796959493929190611c06565b60405180910390a150565b8360000160009054906101000a900473ffffffffffffffffffffffffffffffffffffffff1673ffffffffffffffffffffffffffffffffffffffff166339255d5b8560010160009054906101000a900473ffffffffffffffffffffffffffffffffffffffff168660010160009054906101000a900473ffffffffffffffffffffffffffffffffffffffff1673ffffffffffffffffffffffffffffffffffffffff1663d787840a8787600067ffffffffffffffff811115610d5d57610d5c611856565b5b6040519080825280601f01601f191660200182016040528015610d8f5781602001600182028036833780820191505090505b50604051602401610da293929190611cd1565b604051602081830303815290604052915060e01b6020820180517bffffffffffffffffffffffffffffffffffffffffffffffffffffffff8381831617835250505050846040518463ffffffff1660e01b8152600401610e0393929190611d30565b6000604051808303816000875af1158015610e22573d6000803e3d6000fd5b505050506040513d6000823e3d601f19601f82011682018060405250810190610e4b9190611e67565b5050505050565b8560000160009054906101000a900473ffffffffffffffffffffffffffffffffffffffff1673ffffffffffffffffffffffffffffffffffffffff166339255d5b8760010160009054906101000a900473ffffffffffffffffffffffffffffffffffffffff168860010160009054906101000a900473ffffffffffffffffffffffffffffffffffffffff1673ffffffffffffffffffffffffffffffffffffffff1663232d2b5889898989600067ffffffffffffffff811115610f1657610f15611856565b5b6040519080825280601f01601f191660200182016040528015610f485781602001600182028036833780820191505090505b50604051602401610f5d959493929190611edb565b604051602081830303815290604052915060e01b6020820180517bffffffffffffffffffffffffffffffffffffffffffffffffffffffff8381831617835250505050846040518463ffffffff1660e01b8152600401610fbe93929190611d30565b6000604051808303816000875af1158015610fdd573d6000803e3d6000fd5b505050506040513d6000823e3d601f19601f820116820180604052508101906110069190611e67565b50505050505050565b6000604051905090565b600080fd5b600080fd5b6000819050919050565b61103681611023565b811461104157600080fd5b50565b6000813590506110538161102d565b92915050565b60006020828403121561106f5761106e611019565b5b600061107d84828501611044565b91505092915050565b61108f81611023565b82525050565b600073ffffffffffffffffffffffffffffffffffffffff82169050919050565b60006110c082611095565b9050919050565b6110d0816110b5565b82525050565b6000819050919050565b6110e9816110d6565b82525050565b600081519050919050565b600082825260208201905092915050565b60005b8381101561112957808201518184015260208101905061110e565b60008484015250505050565b6000601f19601f8301169050919050565b6000611151826110ef565b61115b81856110fa565b935061116b81856020860161110b565b61117481611135565b840191505092915050565b600063ffffffff82169050919050565b6111988161117f565b82525050565b6000819050919050565b60006111c36111be6111b984611095565b61119e565b611095565b9050919050565b60006111d5826111a8565b9050919050565b60006111e7826111ca565b9050919050565b6111f7816111dc565b82525050565b600061016082019050611213600083018e611086565b611220602083018d6110c7565b61122d604083018c6110e0565b818103606083015261123f818b611146565b905061124e608083018a61118f565b61125b60a08301896111ee565b81810360c083015261126d8188611146565b905061127c60e08301876110e0565b61128a6101008301866110e0565b6112986101208301856110e0565b6112a66101408301846110e0565b9c9b505050505050505050505050565b6112bf816110d6565b81146112ca57600080fd5b50565b6000813590506112dc816112b6565b92915050565b600080604083850312156112f9576112f8611019565b5b600061130785828601611044565b9250506020611318858286016112cd565b9150509250929050565b600060208201905061133760008301846110e0565b92915050565b611346816110b5565b811461135157600080fd5b50565b6000813590506113638161133d565b92915050565b600080fd5b600080fd5b600080fd5b60008083601f84011261138e5761138d611369565b5b8235905067ffffffffffffffff8111156113ab576113aa61136e565b5b6020830191508360018202830111156113c7576113c6611373565b5b9250929050565b600080600080600080600080600060e08a8c0312156113f0576113ef611019565b5b60006113fe8c828d016112cd565b995050602061140f8c828d016112cd565b98505060406114208c828d016112cd565b97505060606114318c828d016112cd565b96505060806114428c828d01611354565b95505060a08a013567ffffffffffffffff8111156114635761146261101e565b5b61146f8c828d01611378565b945094505060c08a013567ffffffffffffffff8111156114925761149161101e565b5b61149e8c828d01611378565b92509250509295985092959850929598565b6000806000806000606086880312156114cc576114cb611019565b5b600086013567ffffffffffffffff8111156114ea576114e961101e565b5b6114f688828901611378565b9550955050602086013567ffffffffffffffff8111156115195761151861101e565b5b61152588828901611378565b93509350506040611538888289016112cd565b9150509295509295909350565b60008060008060006080868803121561156157611560611019565b5b600061156f88828901611044565b955050602061158088828901611354565b945050604086013567ffffffffffffffff8111156115a1576115a061101e565b5b6115ad88828901611378565b935093505060606115c088828901611044565b9150509295509295909350565b6000602082840312156115e3576115e2611019565b5b60006115f184828501611354565b91505092915050565b600060a08201905061160f60008301886110c7565b81810360208301526116218187611146565b905061163060408301866110e0565b61163d60608301856110e0565b818103608083015261164f8184611146565b90509695505050505050565b7f4e487b7100000000000000000000000000000000000000000000000000000000600052602260045260246000fd5b600060028204905060018216806116a257607f821691505b6020821081036116b5576116b461165b565b5b50919050565b60008160601b9050919050565b60006116d3826116bb565b9050919050565b60006116e5826116c8565b9050919050565b6116fd6116f8826110b5565b6116da565b82525050565b6000819050919050565b61171e611719826110d6565b611703565b82525050565b600061173082886116ec565b60148201915061174082876116ec565b601482019150611750828661170d565b602082019150611760828561170d565b602082019150611770828461170d565b6020820191508190509695505050505050565b7f464f4e5420495320414c52454144592052454749535445524544000000000000600082015250565b60006117b9601a836110fa565b91506117c482611783565b602082019050919050565b600060208201905081810360008301526117e8816117ac565b9050919050565b7f4e487b7100000000000000000000000000000000000000000000000000000000600052601160045260246000fd5b60006118298261117f565b91506118348361117f565b9250828201905063ffffffff8111156118505761184f6117ef565b5b92915050565b7f4e487b7100000000000000000000000000000000000000000000000000000000600052604160045260246000fd5b60008190508160005260206000209050919050565b60006020601f8301049050919050565b600082821b905092915050565b6000600883026118e77fffffffffffffffffffffffffffffffffffffffffffffffffffffffffffffffff826118aa565b6118f186836118aa565b95508019841693508086168417925050509392505050565b600061192461191f61191a846110d6565b61119e565b6110d6565b9050919050565b6000819050919050565b61193e83611909565b61195261194a8261192b565b8484546118b7565b825550505050565b600090565b61196761195a565b611972818484611935565b505050565b5b818110156119965761198b60008261195f565b600181019050611978565b5050565b601f8211156119db576119ac81611885565b6119b58461189a565b810160208510156119c4578190505b6119d86119d08561189a565b830182611977565b50505b505050565b600082821c905092915050565b60006119fe600019846008026119e0565b1980831691505092915050565b6000611a1783836119ed565b9150826002028217905092915050565b611a30826110ef565b67ffffffffffffffff811115611a4957611a48611856565b5b611a53825461168a565b611a5e82828561199a565b600060209050601f831160018114611a915760008415611a7f578287015190505b611a898582611a0b565b865550611af1565b601f198416611a9f86611885565b60005b82811015611ac757848901518255600182019150602085019450602081019050611aa2565b86831015611ae45784890151611ae0601f8916826119ed565b8355505b6001600288020188555050505b505050505050565b7f5553455220495320414c52454144592052454749535445524544000000000000600082015250565b6000611b2f601a836110fa565b9150611b3a82611af9565b602082019050919050565b60006020820190508181036000830152611b5e81611b22565b9050919050565b82818337600083830152505050565b6000611b8083856110fa565b9350611b8d838584611b65565b611b9683611135565b840190509392505050565b600060a082019050611bb6600083018a6110c7565b8181036020830152611bc981888a611b74565b9050611bd860408301876110e0565b611be560608301866110e0565b8181036080830152611bf8818486611b74565b905098975050505050505050565b600060e082019050611c1b600083018a611086565b8181036020830152611c2d8189611146565b9050611c3c60408301886110c7565b611c4960608301876110e0565b611c5660808301866110e0565b611c6360a08301856110e0565b611c7060c08301846110e0565b98975050505050505050565b600081519050919050565b600082825260208201905092915050565b6000611ca382611c7c565b611cad8185611c87565b9350611cbd81856020860161110b565b611cc681611135565b840191505092915050565b6000606082019050611ce660008301866111ee565b611cf3602083018561118f565b8181036040830152611d058184611c98565b9050949350505050565b6000611d1a826111ca565b9050919050565b611d2a81611d0f565b82525050565b6000606082019050611d456000830186611d21565b8181036020830152611d578185611c98565b90508181036040830152611d6b8184611c98565b9050949350505050565b600080fd5b611d8382611135565b810181811067ffffffffffffffff82111715611da257611da1611856565b5b80604052505050565b6000611db561100f565b9050611dc18282611d7a565b919050565b600067ffffffffffffffff821115611de157611de0611856565b5b611dea82611135565b9050602081019050919050565b6000611e0a611e0584611dc6565b611dab565b905082815260208101848484011115611e2657611e25611d75565b5b611e3184828561110b565b509392505050565b600082601f830112611e4e57611e4d611369565b5b8151611e5e848260208601611df7565b91505092915050565b600060208284031215611e7d57611e7c611019565b5b600082015167ffffffffffffffff811115611e9b57611e9a61101e565b5b611ea784828501611e39565b91505092915050565b60006fffffffffffffffffffffffffffffffff82169050919050565b611ed581611eb0565b82525050565b600060a082019050611ef060008301886111ee565b611efd602083018761118f565b611f0a60408301866110c7565b611f176060830185611ecc565b8181036080830152611f298184611c98565b9050969550505050505056fea264697066735822122066df2776d275c226776d5699dcb8673b337d15d0ffec88a71f9ff911aa4aae5664736f6c6343000810003360806040523480156200001157600080fd5b506040518060400160405280601581526020017f496e746572506c616e6574617279466f6e744e465400000000000000000000008152506040518060400160405280600381526020017f495046000000000000000000000000000000000000000000000000000000000081525081600090816200008f91906200042d565b508060019081620000a191906200042d565b5050506000600760006101000a81548160ff021916908315150217905550620000df620000d3620000e560201b60201c565b620000ed60201b60201c565b62000514565b600033905090565b6000600760019054906101000a900473ffffffffffffffffffffffffffffffffffffffff16905081600760016101000a81548173ffffffffffffffffffffffffffffffffffffffff021916908373ffffffffffffffffffffffffffffffffffffffff1602179055508173ffffffffffffffffffffffffffffffffffffffff168173ffffffffffffffffffffffffffffffffffffffff167f8be0079c531659141344cd1fd0a4f28419497f9722a3daafe3b4186f6b6457e060405160405180910390a35050565b600081519050919050565b7f4e487b7100000000000000000000000000000000000000000000000000000000600052604160045260246000fd5b7f4e487b7100000000000000000000000000000000000000000000000000000000600052602260045260246000fd5b600060028204905060018216806200023557607f821691505b6020821081036200024b576200024a620001ed565b5b50919050565b60008190508160005260206000209050919050565b60006020601f8301049050919050565b600082821b905092915050565b600060088302620002b57fffffffffffffffffffffffffffffffffffffffffffffffffffffffffffffffff8262000276565b620002c1868362000276565b95508019841693508086168417925050509392505050565b6000819050919050565b6000819050919050565b60006200030e620003086200030284620002d9565b620002e3565b620002d9565b9050919050565b6000819050919050565b6200032a83620002ed565b62000342620003398262000315565b84845462000283565b825550505050565b600090565b620003596200034a565b620003668184846200031f565b505050565b5b818110156200038e57620003826000826200034f565b6001810190506200036c565b5050565b601f821115620003dd57620003a78162000251565b620003b28462000266565b81016020851015620003c2578190505b620003da620003d18562000266565b8301826200036b565b50505b505050565b600082821c905092915050565b60006200040260001984600802620003e2565b1980831691505092915050565b60006200041d8383620003ef565b9150826002028217905092915050565b6200043882620001b3565b67ffffffffffffffff811115620004545762000453620001be565b5b6200046082546200021c565b6200046d82828562000392565b600060209050601f831160018114620004a5576000841562000490578287015190505b6200049c85826200040f565b8655506200050c565b601f198416620004b58662000251565b60005b82811015620004df57848901518255600182019150602085019450602081019050620004b8565b86831015620004ff5784890151620004fb601f891682620003ef565b8355505b6001600288020188555050505b505050505050565b61335c80620005246000396000f3fe608060405234801561001057600080fd5b50600436106101375760003560e01c806370a08231116100b8578063a22cb4651161007c578063a22cb46514610302578063b88d4fde1461031e578063c87b56dd1461033a578063d204c45e1461036a578063e985e9c51461039a578063f2fde38b146103ca57610137565b806370a0823114610282578063715018a6146102b25780638456cb59146102bc5780638da5cb5b146102c657806395d89b41146102e457610137565b80633f4ba83a116100ff5780633f4ba83a146101f257806342842e0e146101fc57806342966c68146102185780635c975abb146102345780636352211e1461025257610137565b806301ffc9a71461013c57806306fdde031461016c578063081812fc1461018a578063095ea7b3146101ba57806323b872dd146101d6575b600080fd5b61015660048036038101906101519190611f05565b6103e6565b6040516101639190611f4d565b60405180910390f35b6101746104c8565b6040516101819190611ff8565b60405180910390f35b6101a4600480360381019061019f9190612050565b61055a565b6040516101b191906120be565b60405180910390f35b6101d460048036038101906101cf9190612105565b6105a0565b005b6101f060048036038101906101eb9190612145565b6106b7565b005b6101fa610717565b005b61021660048036038101906102119190612145565b610729565b005b610232600480360381019061022d9190612050565b610749565b005b61023c6107a5565b6040516102499190611f4d565b60405180910390f35b61026c60048036038101906102679190612050565b6107bc565b60405161027991906120be565b60405180910390f35b61029c60048036038101906102979190612198565b61086d565b6040516102a991906121d4565b60405180910390f35b6102ba610924565b005b6102c4610938565b005b6102ce61094a565b6040516102db91906120be565b60405180910390f35b6102ec610974565b6040516102f99190611ff8565b60405180910390f35b61031c6004803603810190610317919061221b565b610a06565b005b61033860048036038101906103339190612390565b610a1c565b005b610354600480360381019061034f9190612050565b610a7e565b6040516103619190611ff8565b60405180910390f35b610384600480360381019061037f91906124b4565b610a90565b60405161039191906121d4565b60405180910390f35b6103b460048036038101906103af9190612510565b610ac7565b6040516103c19190611f4d565b60405180910390f35b6103e460048036038101906103df9190612198565b610b5b565b005b60007f80ac58cd000000000000000000000000000000000000000000000000000000007bffffffffffffffffffffffffffffffffffffffffffffffffffffffff1916827bffffffffffffffffffffffffffffffffffffffffffffffffffffffff191614806104b157507f5b5e139f000000000000000000000000000000000000000000000000000000007bffffffffffffffffffffffffffffffffffffffffffffffffffffffff1916827bffffffffffffffffffffffffffffffffffffffffffffffffffffffff1916145b806104c157506104c082610bde565b5b9050919050565b6060600080546104d79061257f565b80601f01602080910402602001604051908101604052809291908181526020018280546105039061257f565b80156105505780601f1061052557610100808354040283529160200191610550565b820191906000526020600020905b81548152906001019060200180831161053357829003601f168201915b5050505050905090565b600061056582610c48565b6004600083815260200190815260200160002060009054906101000a900473ffffffffffffffffffffffffffffffffffffffff169050919050565b60006105ab826107bc565b90508073ffffffffffffffffffffffffffffffffffffffff168373ffffffffffffffffffffffffffffffffffffffff160361061b576040517f08c379a000000000000000000000000000000000000000000000000000000000815260040161061290612622565b60405180910390fd5b8073ffffffffffffffffffffffffffffffffffffffff1661063a610c93565b73ffffffffffffffffffffffffffffffffffffffff161480610669575061066881610663610c93565b610ac7565b5b6106a8576040517f08c379a000000000000000000000000000000000000000000000000000000000815260040161069f906126b4565b60405180910390fd5b6106b28383610c9b565b505050565b6106c86106c2610c93565b82610d54565b610707576040517f08c379a00000000000000000000000000000000000000000000000000000000081526004016106fe90612746565b60405180910390fd5b610712838383610de9565b505050565b61071f61104f565b6107276110cd565b565b61074483838360405180602001604052806000815250610a1c565b505050565b61075a610754610c93565b82610d54565b610799576040517f08c379a000000000000000000000000000000000000000000000000000000000815260040161079090612746565b60405180910390fd5b6107a281611130565b50565b6000600760009054906101000a900460ff16905090565b6000806002600084815260200190815260200160002060009054906101000a900473ffffffffffffffffffffffffffffffffffffffff169050600073ffffffffffffffffffffffffffffffffffffffff168173ffffffffffffffffffffffffffffffffffffffff1603610864576040517f08c379a000000000000000000000000000000000000000000000000000000000815260040161085b906127b2565b60405180910390fd5b80915050919050565b60008073ffffffffffffffffffffffffffffffffffffffff168273ffffffffffffffffffffffffffffffffffffffff16036108dd576040517f08c379a00000000000000000000000000000000000000000000000000000000081526004016108d490612844565b60405180910390fd5b600360008373ffffffffffffffffffffffffffffffffffffffff1673ffffffffffffffffffffffffffffffffffffffff168152602001908152602001600020549050919050565b61092c61104f565b610936600061113c565b565b61094061104f565b610948611202565b565b6000600760019054906101000a900473ffffffffffffffffffffffffffffffffffffffff16905090565b6060600180546109839061257f565b80601f01602080910402602001604051908101604052809291908181526020018280546109af9061257f565b80156109fc5780601f106109d1576101008083540402835291602001916109fc565b820191906000526020600020905b8154815290600101906020018083116109df57829003601f168201915b5050505050905090565b610a18610a11610c93565b8383611265565b5050565b610a2d610a27610c93565b83610d54565b610a6c576040517f08c379a0000000000000000000000000000000000000000000000000000000008152600401610a6390612746565b60405180910390fd5b610a78848484846113d1565b50505050565b6060610a898261142d565b9050919050565b600080610a9d600861153f565b9050610aa9600861154d565b610ab38482611563565b610abd8184611581565b8091505092915050565b6000600560008473ffffffffffffffffffffffffffffffffffffffff1673ffffffffffffffffffffffffffffffffffffffff16815260200190815260200160002060008373ffffffffffffffffffffffffffffffffffffffff1673ffffffffffffffffffffffffffffffffffffffff16815260200190815260200160002060009054906101000a900460ff16905092915050565b610b6361104f565b600073ffffffffffffffffffffffffffffffffffffffff168173ffffffffffffffffffffffffffffffffffffffff1603610bd2576040517f08c379a0000000000000000000000000000000000000000000000000000000008152600401610bc9906128d6565b60405180910390fd5b610bdb8161113c565b50565b60007f01ffc9a7000000000000000000000000000000000000000000000000000000007bffffffffffffffffffffffffffffffffffffffffffffffffffffffff1916827bffffffffffffffffffffffffffffffffffffffffffffffffffffffff1916149050919050565b610c51816115ee565b610c90576040517f08c379a0000000000000000000000000000000000000000000000000000000008152600401610c87906127b2565b60405180910390fd5b50565b600033905090565b816004600083815260200190815260200160002060006101000a81548173ffffffffffffffffffffffffffffffffffffffff021916908373ffffffffffffffffffffffffffffffffffffffff160217905550808273ffffffffffffffffffffffffffffffffffffffff16610d0e836107bc565b73ffffffffffffffffffffffffffffffffffffffff167f8c5be1e5ebec7d5bd14f71427d1e84f3dd0314c0f7b2291e5b200ac8c7c3b92560405160405180910390a45050565b600080610d60836107bc565b90508073ffffffffffffffffffffffffffffffffffffffff168473ffffffffffffffffffffffffffffffffffffffff161480610da25750610da18185610ac7565b5b80610de057508373ffffffffffffffffffffffffffffffffffffffff16610dc88461055a565b73ffffffffffffffffffffffffffffffffffffffff16145b91505092915050565b8273ffffffffffffffffffffffffffffffffffffffff16610e09826107bc565b73ffffffffffffffffffffffffffffffffffffffff1614610e5f576040517f08c379a0000000000000000000000000000000000000000000000000000000008152600401610e5690612968565b60405180910390fd5b600073ffffffffffffffffffffffffffffffffffffffff168273ffffffffffffffffffffffffffffffffffffffff1603610ece576040517f08c379a0000000000000000000000000000000000000000000000000000000008152600401610ec5906129fa565b60405180910390fd5b610ed983838361165a565b610ee4600082610c9b565b6001600360008573ffffffffffffffffffffffffffffffffffffffff1673ffffffffffffffffffffffffffffffffffffffff1681526020019081526020016000206000828254610f349190612a49565b925050819055506001600360008473ffffffffffffffffffffffffffffffffffffffff1673ffffffffffffffffffffffffffffffffffffffff1681526020019081526020016000206000828254610f8b9190612a7d565b92505081905550816002600083815260200190815260200160002060006101000a81548173ffffffffffffffffffffffffffffffffffffffff021916908373ffffffffffffffffffffffffffffffffffffffff160217905550808273ffffffffffffffffffffffffffffffffffffffff168473ffffffffffffffffffffffffffffffffffffffff167fddf252ad1be2c89b69c2b068fc378daa952ba7f163c4a11628f55a4df523b3ef60405160405180910390a461104a838383611672565b505050565b611057610c93565b73ffffffffffffffffffffffffffffffffffffffff1661107561094a565b73ffffffffffffffffffffffffffffffffffffffff16146110cb576040517f08c379a00000000000000000000000000000000000000000000000000000000081526004016110c290612afd565b60405180910390fd5b565b6110d5611677565b6000600760006101000a81548160ff0219169083151502179055507f5db9ee0a495bf2e6ff9c91a7834c1ba4fdd244a5e8aa4e537bd38aeae4b073aa611119610c93565b60405161112691906120be565b60405180910390a1565b611139816116c0565b50565b6000600760019054906101000a900473ffffffffffffffffffffffffffffffffffffffff16905081600760016101000a81548173ffffffffffffffffffffffffffffffffffffffff021916908373ffffffffffffffffffffffffffffffffffffffff1602179055508173ffffffffffffffffffffffffffffffffffffffff168173ffffffffffffffffffffffffffffffffffffffff167f8be0079c531659141344cd1fd0a4f28419497f9722a3daafe3b4186f6b6457e060405160405180910390a35050565b61120a611713565b6001600760006101000a81548160ff0219169083151502179055507f62e78cea01bee320cd4e420270b5ea74000d11b0c9f74754ebdbfc544b05a25861124e610c93565b60405161125b91906120be565b60405180910390a1565b8173ffffffffffffffffffffffffffffffffffffffff168373ffffffffffffffffffffffffffffffffffffffff16036112d3576040517f08c379a00000000000000000000000000000000000000000000000000000000081526004016112ca90612b69565b60405180910390fd5b80600560008573ffffffffffffffffffffffffffffffffffffffff1673ffffffffffffffffffffffffffffffffffffffff16815260200190815260200160002060008473ffffffffffffffffffffffffffffffffffffffff1673ffffffffffffffffffffffffffffffffffffffff16815260200190815260200160002060006101000a81548160ff0219169083151502179055508173ffffffffffffffffffffffffffffffffffffffff168373ffffffffffffffffffffffffffffffffffffffff167f17307eab39ab6107e8899845ad3d59bd9653f200f220920489ca2b5937696c31836040516113c49190611f4d565b60405180910390a3505050565b6113dc848484610de9565b6113e88484848461175d565b611427576040517f08c379a000000000000000000000000000000000000000000000000000000000815260040161141e90612bfb565b60405180910390fd5b50505050565b606061143882610c48565b60006006600084815260200190815260200160002080546114589061257f565b80601f01602080910402602001604051908101604052809291908181526020018280546114849061257f565b80156114d15780601f106114a6576101008083540402835291602001916114d1565b820191906000526020600020905b8154815290600101906020018083116114b457829003601f168201915b5050505050905060006114e26118e4565b905060008151036114f757819250505061153a565b60008251111561152c578082604051602001611514929190612c57565b6040516020818303038152906040529250505061153a565b611535846118fb565b925050505b919050565b600081600001549050919050565b6001816000016000828254019250508190555050565b61157d828260405180602001604052806000815250611963565b5050565b61158a826115ee565b6115c9576040517f08c379a00000000000000000000000000000000000000000000000000000000081526004016115c090612ced565b60405180910390fd5b806006600084815260200190815260200160002090816115e99190612eb9565b505050565b60008073ffffffffffffffffffffffffffffffffffffffff166002600084815260200190815260200160002060009054906101000a900473ffffffffffffffffffffffffffffffffffffffff1673ffffffffffffffffffffffffffffffffffffffff1614159050919050565b611662611713565b61166d8383836119be565b505050565b505050565b61167f6107a5565b6116be576040517f08c379a00000000000000000000000000000000000000000000000000000000081526004016116b590612fd7565b60405180910390fd5b565b6116c9816119c3565b60006006600083815260200190815260200160002080546116e99061257f565b9050146117105760066000828152602001908152602001600020600061170f9190611e3c565b5b50565b61171b6107a5565b1561175b576040517f08c379a000000000000000000000000000000000000000000000000000000000815260040161175290613043565b60405180910390fd5b565b600061177e8473ffffffffffffffffffffffffffffffffffffffff16611ae0565b156118d7578373ffffffffffffffffffffffffffffffffffffffff1663150b7a026117a7610c93565b8786866040518563ffffffff1660e01b81526004016117c994939291906130b8565b6020604051808303816000875af192505050801561180557506040513d601f19601f820116820180604052508101906118029190613119565b60015b611887573d8060008114611835576040519150601f19603f3d011682016040523d82523d6000602084013e61183a565b606091505b50600081510361187f576040517f08c379a000000000000000000000000000000000000000000000000000000000815260040161187690612bfb565b60405180910390fd5b805181602001fd5b63150b7a0260e01b7bffffffffffffffffffffffffffffffffffffffffffffffffffffffff1916817bffffffffffffffffffffffffffffffffffffffffffffffffffffffff1916149150506118dc565b600190505b949350505050565b606060405180602001604052806000815250905090565b606061190682610c48565b60006119106118e4565b90506000815111611930576040518060200160405280600081525061195b565b8061193a84611b03565b60405160200161194b929190612c57565b6040516020818303038152906040525b915050919050565b61196d8383611c63565b61197a600084848461175d565b6119b9576040517f08c379a00000000000000000000000000000000000000000000000000000000081526004016119b090612bfb565b60405180910390fd5b505050565b505050565b60006119ce826107bc565b90506119dc8160008461165a565b6119e7600083610c9b565b6001600360008373ffffffffffffffffffffffffffffffffffffffff1673ffffffffffffffffffffffffffffffffffffffff1681526020019081526020016000206000828254611a379190612a49565b925050819055506002600083815260200190815260200160002060006101000a81549073ffffffffffffffffffffffffffffffffffffffff021916905581600073ffffffffffffffffffffffffffffffffffffffff168273ffffffffffffffffffffffffffffffffffffffff167fddf252ad1be2c89b69c2b068fc378daa952ba7f163c4a11628f55a4df523b3ef60405160405180910390a4611adc81600084611672565b5050565b6000808273ffffffffffffffffffffffffffffffffffffffff163b119050919050565b606060008203611b4a576040518060400160405280600181526020017f30000000000000000000000000000000000000000000000000000000000000008152509050611c5e565b600082905060005b60008214611b7c578080611b6590613146565b915050600a82611b7591906131bd565b9150611b52565b60008167ffffffffffffffff811115611b9857611b97612265565b5b6040519080825280601f01601f191660200182016040528015611bca5781602001600182028036833780820191505090505b5090505b60008514611c5757600182611be39190612a49565b9150600a85611bf291906131ee565b6030611bfe9190612a7d565b60f81b818381518110611c1457611c1361321f565b5b60200101907effffffffffffffffffffffffffffffffffffffffffffffffffffffffffffff1916908160001a905350600a85611c5091906131bd565b9450611bce565b8093505050505b919050565b600073ffffffffffffffffffffffffffffffffffffffff168273ffffffffffffffffffffffffffffffffffffffff1603611cd2576040517f08c379a0000000000000000000000000000000000000000000000000000000008152600401611cc99061329a565b60405180910390fd5b611cdb816115ee565b15611d1b576040517f08c379a0000000000000000000000000000000000000000000000000000000008152600401611d1290613306565b60405180910390fd5b611d276000838361165a565b6001600360008473ffffffffffffffffffffffffffffffffffffffff1673ffffffffffffffffffffffffffffffffffffffff1681526020019081526020016000206000828254611d779190612a7d565b92505081905550816002600083815260200190815260200160002060006101000a81548173ffffffffffffffffffffffffffffffffffffffff021916908373ffffffffffffffffffffffffffffffffffffffff160217905550808273ffffffffffffffffffffffffffffffffffffffff16600073ffffffffffffffffffffffffffffffffffffffff167fddf252ad1be2c89b69c2b068fc378daa952ba7f163c4a11628f55a4df523b3ef60405160405180910390a4611e3860008383611672565b5050565b508054611e489061257f565b6000825580601f10611e5a5750611e79565b601f016020900490600052602060002090810190611e789190611e7c565b5b50565b5b80821115611e95576000816000905550600101611e7d565b5090565b6000604051905090565b600080fd5b600080fd5b60007fffffffff0000000000000000000000000000000000000000000000000000000082169050919050565b611ee281611ead565b8114611eed57600080fd5b50565b600081359050611eff81611ed9565b92915050565b600060208284031215611f1b57611f1a611ea3565b5b6000611f2984828501611ef0565b91505092915050565b60008115159050919050565b611f4781611f32565b82525050565b6000602082019050611f626000830184611f3e565b92915050565b600081519050919050565b600082825260208201905092915050565b60005b83811015611fa2578082015181840152602081019050611f87565b60008484015250505050565b6000601f19601f8301169050919050565b6000611fca82611f68565b611fd48185611f73565b9350611fe4818560208601611f84565b611fed81611fae565b840191505092915050565b600060208201905081810360008301526120128184611fbf565b905092915050565b6000819050919050565b61202d8161201a565b811461203857600080fd5b50565b60008135905061204a81612024565b92915050565b60006020828403121561206657612065611ea3565b5b60006120748482850161203b565b91505092915050565b600073ffffffffffffffffffffffffffffffffffffffff82169050919050565b60006120a88261207d565b9050919050565b6120b88161209d565b82525050565b60006020820190506120d360008301846120af565b92915050565b6120e28161209d565b81146120ed57600080fd5b50565b6000813590506120ff816120d9565b92915050565b6000806040838503121561211c5761211b611ea3565b5b600061212a858286016120f0565b925050602061213b8582860161203b565b9150509250929050565b60008060006060848603121561215e5761215d611ea3565b5b600061216c868287016120f0565b935050602061217d868287016120f0565b925050604061218e8682870161203b565b9150509250925092565b6000602082840312156121ae576121ad611ea3565b5b60006121bc848285016120f0565b91505092915050565b6121ce8161201a565b82525050565b60006020820190506121e960008301846121c5565b92915050565b6121f881611f32565b811461220357600080fd5b50565b600081359050612215816121ef565b92915050565b6000806040838503121561223257612231611ea3565b5b6000612240858286016120f0565b925050602061225185828601612206565b9150509250929050565b600080fd5b600080fd5b7f4e487b7100000000000000000000000000000000000000000000000000000000600052604160045260246000fd5b61229d82611fae565b810181811067ffffffffffffffff821117156122bc576122bb612265565b5b80604052505050565b60006122cf611e99565b90506122db8282612294565b919050565b600067ffffffffffffffff8211156122fb576122fa612265565b5b61230482611fae565b9050602081019050919050565b82818337600083830152505050565b600061233361232e846122e0565b6122c5565b90508281526020810184848401111561234f5761234e612260565b5b61235a848285612311565b509392505050565b600082601f8301126123775761237661225b565b5b8135612387848260208601612320565b91505092915050565b600080600080608085870312156123aa576123a9611ea3565b5b60006123b8878288016120f0565b94505060206123c9878288016120f0565b93505060406123da8782880161203b565b925050606085013567ffffffffffffffff8111156123fb576123fa611ea8565b5b61240787828801612362565b91505092959194509250565b600067ffffffffffffffff82111561242e5761242d612265565b5b61243782611fae565b9050602081019050919050565b600061245761245284612413565b6122c5565b90508281526020810184848401111561247357612472612260565b5b61247e848285612311565b509392505050565b600082601f83011261249b5761249a61225b565b5b81356124ab848260208601612444565b91505092915050565b600080604083850312156124cb576124ca611ea3565b5b60006124d9858286016120f0565b925050602083013567ffffffffffffffff8111156124fa576124f9611ea8565b5b61250685828601612486565b9150509250929050565b6000806040838503121561252757612526611ea3565b5b6000612535858286016120f0565b9250506020612546858286016120f0565b9150509250929050565b7f4e487b7100000000000000000000000000000000000000000000000000000000600052602260045260246000fd5b6000600282049050600182168061259757607f821691505b6020821081036125aa576125a9612550565b5b50919050565b7f4552433732313a20617070726f76616c20746f2063757272656e74206f776e6560008201527f7200000000000000000000000000000000000000000000000000000000000000602082015250565b600061260c602183611f73565b9150612617826125b0565b604082019050919050565b6000602082019050818103600083015261263b816125ff565b9050919050565b7f4552433732313a20617070726f76652063616c6c6572206973206e6f7420746f60008201527f6b656e206f776e6572206e6f7220617070726f76656420666f7220616c6c0000602082015250565b600061269e603e83611f73565b91506126a982612642565b604082019050919050565b600060208201905081810360008301526126cd81612691565b9050919050565b7f4552433732313a2063616c6c6572206973206e6f7420746f6b656e206f776e6560008201527f72206e6f7220617070726f766564000000000000000000000000000000000000602082015250565b6000612730602e83611f73565b915061273b826126d4565b604082019050919050565b6000602082019050818103600083015261275f81612723565b9050919050565b7f4552433732313a20696e76616c696420746f6b656e2049440000000000000000600082015250565b600061279c601883611f73565b91506127a782612766565b602082019050919050565b600060208201905081810360008301526127cb8161278f565b9050919050565b7f4552433732313a2061646472657373207a65726f206973206e6f74206120766160008201527f6c6964206f776e65720000000000000000000000000000000000000000000000602082015250565b600061282e602983611f73565b9150612839826127d2565b604082019050919050565b6000602082019050818103600083015261285d81612821565b9050919050565b7f4f776e61626c653a206e6577206f776e657220697320746865207a65726f206160008201527f6464726573730000000000000000000000000000000000000000000000000000602082015250565b60006128c0602683611f73565b91506128cb82612864565b604082019050919050565b600060208201905081810360008301526128ef816128b3565b9050919050565b7f4552433732313a207472616e736665722066726f6d20696e636f72726563742060008201527f6f776e6572000000000000000000000000000000000000000000000000000000602082015250565b6000612952602583611f73565b915061295d826128f6565b604082019050919050565b6000602082019050818103600083015261298181612945565b9050919050565b7f4552433732313a207472616e7366657220746f20746865207a65726f2061646460008201527f7265737300000000000000000000000000000000000000000000000000000000602082015250565b60006129e4602483611f73565b91506129ef82612988565b604082019050919050565b60006020820190508181036000830152612a13816129d7565b9050919050565b7f4e487b7100000000000000000000000000000000000000000000000000000000600052601160045260246000fd5b6000612a548261201a565b9150612a5f8361201a565b9250828203905081811115612a7757612a76612a1a565b5b92915050565b6000612a888261201a565b9150612a938361201a565b9250828201905080821115612aab57612aaa612a1a565b5b92915050565b7f4f776e61626c653a2063616c6c6572206973206e6f7420746865206f776e6572600082015250565b6000612ae7602083611f73565b9150612af282612ab1565b602082019050919050565b60006020820190508181036000830152612b1681612ada565b9050919050565b7f4552433732313a20617070726f766520746f2063616c6c657200000000000000600082015250565b6000612b53601983611f73565b9150612b5e82612b1d565b602082019050919050565b60006020820190508181036000830152612b8281612b46565b9050919050565b7f4552433732313a207472616e7366657220746f206e6f6e20455243373231526560008201527f63656976657220696d706c656d656e7465720000000000000000000000000000602082015250565b6000612be5603283611f73565b9150612bf082612b89565b604082019050919050565b60006020820190508181036000830152612c1481612bd8565b9050919050565b600081905092915050565b6000612c3182611f68565b612c3b8185612c1b565b9350612c4b818560208601611f84565b80840191505092915050565b6000612c638285612c26565b9150612c6f8284612c26565b91508190509392505050565b7f45524337323155524953746f726167653a2055524920736574206f66206e6f6e60008201527f6578697374656e7420746f6b656e000000000000000000000000000000000000602082015250565b6000612cd7602e83611f73565b9150612ce282612c7b565b604082019050919050565b60006020820190508181036000830152612d0681612cca565b9050919050565b60008190508160005260206000209050919050565b60006020601f8301049050919050565b600082821b905092915050565b600060088302612d6f7fffffffffffffffffffffffffffffffffffffffffffffffffffffffffffffffff82612d32565b612d798683612d32565b95508019841693508086168417925050509392505050565b6000819050919050565b6000612db6612db1612dac8461201a565b612d91565b61201a565b9050919050565b6000819050919050565b612dd083612d9b565b612de4612ddc82612dbd565b848454612d3f565b825550505050565b600090565b612df9612dec565b612e04818484612dc7565b505050565b5b81811015612e2857612e1d600082612df1565b600181019050612e0a565b5050565b601f821115612e6d57612e3e81612d0d565b612e4784612d22565b81016020851015612e56578190505b612e6a612e6285612d22565b830182612e09565b50505b505050565b600082821c905092915050565b6000612e9060001984600802612e72565b1980831691505092915050565b6000612ea98383612e7f565b9150826002028217905092915050565b612ec282611f68565b67ffffffffffffffff811115612edb57612eda612265565b5b612ee5825461257f565b612ef0828285612e2c565b600060209050601f831160018114612f235760008415612f11578287015190505b612f1b8582612e9d565b865550612f83565b601f198416612f3186612d0d565b60005b82811015612f5957848901518255600182019150602085019450602081019050612f34565b86831015612f765784890151612f72601f891682612e7f565b8355505b6001600288020188555050505b505050505050565b7f5061757361626c653a206e6f7420706175736564000000000000000000000000600082015250565b6000612fc1601483611f73565b9150612fcc82612f8b565b602082019050919050565b60006020820190508181036000830152612ff081612fb4565b9050919050565b7f5061757361626c653a2070617573656400000000000000000000000000000000600082015250565b600061302d601083611f73565b915061303882612ff7565b602082019050919050565b6000602082019050818103600083015261305c81613020565b9050919050565b600081519050919050565b600082825260208201905092915050565b600061308a82613063565b613094818561306e565b93506130a4818560208601611f84565b6130ad81611fae565b840191505092915050565b60006080820190506130cd60008301876120af565b6130da60208301866120af565b6130e760408301856121c5565b81810360608301526130f9818461307f565b905095945050505050565b60008151905061311381611ed9565b92915050565b60006020828403121561312f5761312e611ea3565b5b600061313d84828501613104565b91505092915050565b60006131518261201a565b91507fffffffffffffffffffffffffffffffffffffffffffffffffffffffffffffffff820361318357613182612a1a565b5b600182019050919050565b7f4e487b7100000000000000000000000000000000000000000000000000000000600052601260045260246000fd5b60006131c88261201a565b91506131d38361201a565b9250826131e3576131e261318e565b5b828204905092915050565b60006131f98261201a565b91506132048361201a565b9250826132145761321361318e565b5b828206905092915050565b7f4e487b7100000000000000000000000000000000000000000000000000000000600052603260045260246000fd5b7f4552433732313a206d696e7420746f20746865207a65726f2061646472657373600082015250565b6000613284602083611f73565b915061328f8261324e565b602082019050919050565b600060208201905081810360008301526132b381613277565b9050919050565b7f4552433732313a20746f6b656e20616c7265616479206d696e74656400000000600082015250565b60006132f0601c83611f73565b91506132fb826132ba565b602082019050919050565b6000602082019050818103600083015261331f816132e3565b905091905056fea2646970667358221220e98f3367e771b31e370f8dc3d62ad9585655402a4a85bcad81c9b406c396f04164736f6c63430008100033",
  "linkReferences": {},
  "deployedLinkReferences": {}
}