{
  "_format": "hh-sol-artifact-1",
  "contractName": "FontProject",
  "sourceName": "contracts/FontProject.sol",
  "abi": [
    {
      "inputs": [
        {
          "internalType": "contract ISuperfluid",
          "name": "_host",
          "type": "address"
        },
        {
          "internalType": "contract IInstantDistributionAgreementV1",
          "name": "_ida",
          "type": "address"
        },
        {
          "internalType": "address",
          "name": "_superToken",
          "type": "address"
        }
      ],
      "stateMutability": "nonpayable",
      "type": "constructor"
    },
    {
      "anonymous": false,
      "inputs": [
        {
          "indexed": false,
          "internalType": "bytes32",
          "name": "fontId",
          "type": "bytes32"
        },
        {
          "indexed": false,
          "internalType": "uint256",
          "name": "tokenId",
          "type": "uint256"
        }
      ],
      "name": "FontProjectMinted",
      "type": "event"
    },
    {
      "anonymous": false,
      "inputs": [
        {
          "indexed": false,
          "internalType": "bytes32",
          "name": "fontId",
          "type": "bytes32"
        },
        {
          "indexed": false,
          "internalType": "string",
          "name": "metaDataCID",
          "type": "string"
        },
        {
          "indexed": false,
          "internalType": "address",
          "name": "creatorAddress",
          "type": "address"
        },
        {
          "indexed": false,
          "internalType": "uint256",
          "name": "mintPrice",
          "type": "uint256"
        },
        {
          "indexed": false,
          "internalType": "uint256",
          "name": "createdAt",
          "type": "uint256"
        },
        {
          "indexed": false,
          "internalType": "uint256",
          "name": "startDateTime",
          "type": "uint256"
        }
      ],
      "name": "NewFontProjectCreated",
      "type": "event"
    },
    {
      "inputs": [
        {
          "internalType": "bytes32",
          "name": "fontId",
          "type": "bytes32"
        },
        {
          "internalType": "address",
          "name": "collaborator",
          "type": "address"
        }
      ],
      "name": "addCollaborator",
      "outputs": [],
      "stateMutability": "nonpayable",
      "type": "function"
    },
    {
      "inputs": [
        {
          "internalType": "uint256",
          "name": "createdAt",
          "type": "uint256"
        },
        {
          "internalType": "uint256",
          "name": "startDateTime",
          "type": "uint256"
        },
        {
          "internalType": "uint256",
          "name": "mintPrice",
          "type": "uint256"
        },
        {
          "internalType": "string",
          "name": "metaDataCID",
          "type": "string"
        }
      ],
      "name": "createNewFontProject",
      "outputs": [],
      "stateMutability": "nonpayable",
      "type": "function"
    },
    {
      "inputs": [
        {
          "internalType": "bytes32",
          "name": "fontId",
          "type": "bytes32"
        }
      ],
      "name": "distributeFontProfit",
      "outputs": [],
      "stateMutability": "nonpayable",
      "type": "function"
    },
    {
      "inputs": [
        {
          "internalType": "bytes32",
          "name": "",
          "type": "bytes32"
        }
      ],
      "name": "idToFontProject",
      "outputs": [
        {
          "internalType": "bytes32",
          "name": "id",
          "type": "bytes32"
        },
        {
          "internalType": "string",
          "name": "metaDataCID",
          "type": "string"
        },
        {
          "internalType": "address",
          "name": "creatorAddress",
          "type": "address"
        },
        {
          "internalType": "uint256",
          "name": "mintPrice",
          "type": "uint256"
        },
        {
          "internalType": "contract ISuperToken",
          "name": "idaDistributionToken",
          "type": "address"
        },
        {
          "internalType": "uint32",
          "name": "royaltyIDAIndex",
          "type": "uint32"
        },
        {
          "internalType": "uint256",
          "name": "createdAt",
          "type": "uint256"
        },
        {
          "internalType": "uint256",
          "name": "startDateTime",
          "type": "uint256"
        }
      ],
      "stateMutability": "view",
      "type": "function"
    },
    {
      "inputs": [
        {
          "internalType": "bytes32",
          "name": "fontId",
          "type": "bytes32"
        },
        {
          "internalType": "string",
          "name": "uri",
          "type": "string"
        }
      ],
      "name": "mintFontProject",
      "outputs": [],
      "stateMutability": "payable",
      "type": "function"
    }
  ],
  "bytecode": "0x60806040526040516200001290620001e2565b604051809103906000f0801580156200002f573d6000803e3d6000fd5b506000806101000a81548173ffffffffffffffffffffffffffffffffffffffff021916908373ffffffffffffffffffffffffffffffffffffffff1602179055506000600560006101000a81548163ffffffff021916908363ffffffff1602179055503480156200009e57600080fd5b50604051620068a3380380620068a38339818101604052810190620000c49190620002e4565b60405180604001604052808473ffffffffffffffffffffffffffffffffffffffff1681526020018373ffffffffffffffffffffffffffffffffffffffff16815250600160008201518160000160006101000a81548173ffffffffffffffffffffffffffffffffffffffff021916908373ffffffffffffffffffffffffffffffffffffffff16021790555060208201518160010160006101000a81548173ffffffffffffffffffffffffffffffffffffffff021916908373ffffffffffffffffffffffffffffffffffffffff16021790555090505080600360006101000a81548173ffffffffffffffffffffffffffffffffffffffff021916908373ffffffffffffffffffffffffffffffffffffffff16021790555050505062000340565b613880806200302383390190565b600080fd5b600073ffffffffffffffffffffffffffffffffffffffff82169050919050565b60006200022282620001f5565b9050919050565b6000620002368262000215565b9050919050565b620002488162000229565b81146200025457600080fd5b50565b60008151905062000268816200023d565b92915050565b60006200027b8262000215565b9050919050565b6200028d816200026e565b81146200029957600080fd5b50565b600081519050620002ad8162000282565b92915050565b620002be8162000215565b8114620002ca57600080fd5b50565b600081519050620002de81620002b3565b92915050565b6000806000606084860312156200030057620002ff620001f0565b5b6000620003108682870162000257565b935050602062000323868287016200029c565b92505060406200033686828701620002cd565b9150509250925092565b612cd380620003506000396000f3fe60806040526004361061004a5760003560e01c80633c05f58a1461004f578063473895b21461006b5780634f6210ca146100af57806358bd422e146100d8578063659b52ee14610101575b600080fd5b61006960048036038101906100649190611be6565b61012a565b005b34801561007757600080fd5b50610092600480360381019061008d9190611c42565b610372565b6040516100a6989796959493929190611dd5565b60405180910390f35b3480156100bb57600080fd5b506100d660048036038101906100d19190611c42565b610492565b005b3480156100e457600080fd5b506100ff60048036038101906100fa9190611ee6565b6108c7565b005b34801561010d57600080fd5b5061012860048036038101906101239190611f9a565b610c63565b005b60006004600084815260200190815260200160002090506000816008015403610188576040517f08c379a000000000000000000000000000000000000000000000000000000000815260040161017f90612026565b60405180910390fd5b806003015434146101ce576040517f08c379a00000000000000000000000000000000000000000000000000000000081526004016101c590612092565b60405180910390fd5b600360009054906101000a900473ffffffffffffffffffffffffffffffffffffffff1673ffffffffffffffffffffffffffffffffffffffff16637687d19b34306040518363ffffffff1660e01b815260040161022a91906120b2565b6000604051808303818588803b15801561024357600080fd5b505af1158015610257573d6000803e3d6000fd5b505050505060008060009054906101000a900473ffffffffffffffffffffffffffffffffffffffff1673ffffffffffffffffffffffffffffffffffffffff1663d204c45e33856040518363ffffffff1660e01b81526004016102ba9291906120cd565b6020604051808303816000875af11580156102d9573d6000803e3d6000fd5b505050506040513d601f19601f820116820180604052508101906102fd9190612112565b90508160040181908060018154018082558091505060019003906000526020600020016000909190919091505561033384610492565b7f6442d06b0ca7900e621a0710b389c3d5043e6f37d521ccd695387789c5f54663848260405161036492919061213f565b60405180910390a150505050565b600460205280600052604060002060009150905080600001549080600101805461039b90612197565b80601f01602080910402602001604051908101604052809291908181526020018280546103c790612197565b80156104145780601f106103e957610100808354040283529160200191610414565b820191906000526020600020905b8154815290600101906020018083116103f757829003601f168201915b5050505050908060020160009054906101000a900473ffffffffffffffffffffffffffffffffffffffff16908060030154908060060160009054906101000a900473ffffffffffffffffffffffffffffffffffffffff16908060060160149054906101000a900463ffffffff16908060070154908060080154905088565b60006004600083815260200190815260200160002060405180610140016040529081600082015481526020016001820180546104cd90612197565b80601f01602080910402602001604051908101604052809291908181526020018280546104f990612197565b80156105465780601f1061051b57610100808354040283529160200191610546565b820191906000526020600020905b81548152906001019060200180831161052957829003601f168201915b505050505081526020016002820160009054906101000a900473ffffffffffffffffffffffffffffffffffffffff1673ffffffffffffffffffffffffffffffffffffffff1673ffffffffffffffffffffffffffffffffffffffff16815260200160038201548152602001600482018054806020026020016040519081016040528092919081815260200182805480156105fe57602002820191906000526020600020905b8154815260200190600101908083116105ea575b505050505081526020016005820180548060200260200160405190810160405280929190818152602001828054801561068c57602002820191906000526020600020905b8160009054906101000a900473ffffffffffffffffffffffffffffffffffffffff1673ffffffffffffffffffffffffffffffffffffffff1681526020019060010190808311610642575b505050505081526020016006820160009054906101000a900473ffffffffffffffffffffffffffffffffffffffff1673ffffffffffffffffffffffffffffffffffffffff1673ffffffffffffffffffffffffffffffffffffffff1681526020016006820160149054906101000a900463ffffffff1663ffffffff1663ffffffff16815260200160078201548152602001600882015481525050905060008161012001510361076f576040517f08c379a000000000000000000000000000000000000000000000000000000000815260040161076690612026565b60405180910390fd5b60008160c0015173ffffffffffffffffffffffffffffffffffffffff166370a08231306040518263ffffffff1660e01b81526004016107ae91906120b2565b602060405180830381865afa1580156107cb573d6000803e3d6000fd5b505050506040513d601f19601f820116820180604052508101906107ef9190612112565b905060006001800160009054906101000a900473ffffffffffffffffffffffffffffffffffffffff1673ffffffffffffffffffffffffffffffffffffffff1663899baaec8460c00151308660e00151866040518563ffffffff1660e01b815260040161085e94939291906121c8565b6040805180830381865afa15801561087a573d6000803e3d6000fd5b505050506040513d601f19601f8201168201806040525081019061089e9190612255565b5090506108c18360c001518460e00151836001610ead909392919063ffffffff16565b50505050565b600033308787876040516020016108e29594939291906122fe565b6040516020818303038152906040528051906020012090506000600460008381526020019081526020016000206008015414610953576040517f08c379a000000000000000000000000000000000000000000000000000000000815260040161094a906123a9565b60405180910390fd5b6060806001600560009054906101000a900463ffffffff1661097591906123f8565b600560006101000a81548163ffffffff021916908363ffffffff1602179055506000600360009054906101000a900473ffffffffffffffffffffffffffffffffffffffff169050600060405180610140016040528086815260200188888080601f016020809104026020016040519081016040528093929190818152602001838380828437600081840152601f19601f8201169050808301925050505050505081526020013373ffffffffffffffffffffffffffffffffffffffff1681526020018981526020018581526020018481526020018373ffffffffffffffffffffffffffffffffffffffff168152602001600560009054906101000a900463ffffffff1663ffffffff1681526020018b81526020018a81525090508060046000878152602001908152602001600020600082015181600001556020820151816001019081610ac191906125d2565b5060408201518160020160006101000a81548173ffffffffffffffffffffffffffffffffffffffff021916908373ffffffffffffffffffffffffffffffffffffffff160217905550606082015181600301556080820151816004019080519060200190610b2f929190611962565b5060a0820151816005019080519060200190610b4c9291906119af565b5060c08201518160060160006101000a81548173ffffffffffffffffffffffffffffffffffffffff021916908373ffffffffffffffffffffffffffffffffffffffff16021790555060e08201518160060160146101000a81548163ffffffff021916908363ffffffff16021790555061010082015181600701556101208201518160080155905050610bf28160c001518260e001516001610f0d9092919063ffffffff16565b610c148160c001518260e0015133600180610f6b90949392919063ffffffff16565b7ff8f4cc61c37f330527c0e8c1681ccfc46eee7202a4c72c3f66b1e25f7027c54b858888338c8f8f604051610c4f97969594939291906126d1565b60405180910390a150505050505050505050565b60006004600084815260200190815260200160002090506000816008015403610cc1576040517f08c379a0000000000000000000000000000000000000000000000000000000008152600401610cb890612026565b60405180910390fd5b3373ffffffffffffffffffffffffffffffffffffffff168160020160009054906101000a900473ffffffffffffffffffffffffffffffffffffffff1673ffffffffffffffffffffffffffffffffffffffff1614610d53576040517f08c379a0000000000000000000000000000000000000000000000000000000008152600401610d4a906127ad565b60405180910390fd5b610de581600501805480602002602001604051908101604052809291908181526020018280548015610dda57602002820191906000526020600020905b8160009054906101000a900473ffffffffffffffffffffffffffffffffffffffff1673ffffffffffffffffffffffffffffffffffffffff1681526020019060010190808311610d90575b505050505083610fcd565b15610e25576040517f08c379a0000000000000000000000000000000000000000000000000000000008152600401610e1c90612819565b60405180910390fd5b80600501829080600181540180825580915050600190039060005260206000200160009091909190916101000a81548173ffffffffffffffffffffffffffffffffffffffff021916908373ffffffffffffffffffffffffffffffffffffffff160217905550610ea88160000154603c6064610ea09190612846565b60ff16611054565b505050565b610f0784848484600067ffffffffffffffff811115610ecf57610ece611abb565b5b6040519080825280601f01601f191660200182016040528015610f015781602001600182028036833780820191505090505b50611434565b50505050565b610f66838383600067ffffffffffffffff811115610f2e57610f2d611abb565b5b6040519080825280601f01601f191660200182016040528015610f605781602001600182028036833780820191505090505b506115ee565b505050565b610fc68585858585600067ffffffffffffffff811115610f8e57610f8d611abb565b5b6040519080825280601f01601f191660200182016040528015610fc05781602001600182028036833780820191505090505b506117a5565b5050505050565b600080600090505b8351811015611048578273ffffffffffffffffffffffffffffffffffffffff168482815181106110085761100761287b565b5b602002602001015173ffffffffffffffffffffffffffffffffffffffff160361103557600191505061104e565b8080611040906128aa565b915050610fd5565b50600090505b92915050565b600060046000848152602001908152602001600020604051806101400160405290816000820154815260200160018201805461108f90612197565b80601f01602080910402602001604051908101604052809291908181526020018280546110bb90612197565b80156111085780601f106110dd57610100808354040283529160200191611108565b820191906000526020600020905b8154815290600101906020018083116110eb57829003601f168201915b505050505081526020016002820160009054906101000a900473ffffffffffffffffffffffffffffffffffffffff1673ffffffffffffffffffffffffffffffffffffffff1673ffffffffffffffffffffffffffffffffffffffff16815260200160038201548152602001600482018054806020026020016040519081016040528092919081815260200182805480156111c057602002820191906000526020600020905b8154815260200190600101908083116111ac575b505050505081526020016005820180548060200260200160405190810160405280929190818152602001828054801561124e57602002820191906000526020600020905b8160009054906101000a900473ffffffffffffffffffffffffffffffffffffffff1673ffffffffffffffffffffffffffffffffffffffff1681526020019060010190808311611204575b505050505081526020016006820160009054906101000a900473ffffffffffffffffffffffffffffffffffffffff1673ffffffffffffffffffffffffffffffffffffffff1673ffffffffffffffffffffffffffffffffffffffff1681526020016006820160149054906101000a900463ffffffff1663ffffffff1663ffffffff168152602001600782015481526020016008820154815250509050600081610120015103611331576040517f08c379a000000000000000000000000000000000000000000000000000000000815260040161132890612026565b60405180910390fd5b3373ffffffffffffffffffffffffffffffffffffffff16816040015173ffffffffffffffffffffffffffffffffffffffff16146113a3576040517f08c379a000000000000000000000000000000000000000000000000000000000815260040161139a90612964565b60405180910390fd5b60008160a0015151836fffffffffffffffffffffffffffffffff166113c891906129b3565b905060005b8260a001515181101561142d5761141a8360c001518460e001518560a0015184815181106113fe576113fd61287b565b5b6020026020010151856001610f6b90949392919063ffffffff16565b8080611425906128aa565b9150506113cd565b5050505050565b8460000160009054906101000a900473ffffffffffffffffffffffffffffffffffffffff1673ffffffffffffffffffffffffffffffffffffffff166339255d5b8660010160009054906101000a900473ffffffffffffffffffffffffffffffffffffffff168760010160009054906101000a900473ffffffffffffffffffffffffffffffffffffffff1673ffffffffffffffffffffffffffffffffffffffff1663b96731c2888888600067ffffffffffffffff8111156114f7576114f6611abb565b5b6040519080825280601f01601f1916602001820160405280156115295781602001600182028036833780820191505090505b5060405160240161153d9493929190612a5a565b604051602081830303815290604052915060e01b6020820180517bffffffffffffffffffffffffffffffffffffffffffffffffffffffff8381831617835250505050846040518463ffffffff1660e01b815260040161159e93929190612ac7565b6000604051808303816000875af11580156115bd573d6000803e3d6000fd5b505050506040513d6000823e3d601f19601f820116820180604052508101906115e69190612bad565b505050505050565b8360000160009054906101000a900473ffffffffffffffffffffffffffffffffffffffff1673ffffffffffffffffffffffffffffffffffffffff166339255d5b8560010160009054906101000a900473ffffffffffffffffffffffffffffffffffffffff168660010160009054906101000a900473ffffffffffffffffffffffffffffffffffffffff1673ffffffffffffffffffffffffffffffffffffffff1663d787840a8787600067ffffffffffffffff8111156116b0576116af611abb565b5b6040519080825280601f01601f1916602001820160405280156116e25781602001600182028036833780820191505090505b506040516024016116f593929190612bf6565b604051602081830303815290604052915060e01b6020820180517bffffffffffffffffffffffffffffffffffffffffffffffffffffffff8381831617835250505050846040518463ffffffff1660e01b815260040161175693929190612ac7565b6000604051808303816000875af1158015611775573d6000803e3d6000fd5b505050506040513d6000823e3d601f19601f8201168201806040525081019061179e9190612bad565b5050505050565b8560000160009054906101000a900473ffffffffffffffffffffffffffffffffffffffff1673ffffffffffffffffffffffffffffffffffffffff166339255d5b8760010160009054906101000a900473ffffffffffffffffffffffffffffffffffffffff168860010160009054906101000a900473ffffffffffffffffffffffffffffffffffffffff1673ffffffffffffffffffffffffffffffffffffffff1663232d2b5889898989600067ffffffffffffffff81111561186957611868611abb565b5b6040519080825280601f01601f19166020018201604052801561189b5781602001600182028036833780820191505090505b506040516024016118b0959493929190612c43565b604051602081830303815290604052915060e01b6020820180517bffffffffffffffffffffffffffffffffffffffffffffffffffffffff8381831617835250505050846040518463ffffffff1660e01b815260040161191193929190612ac7565b6000604051808303816000875af1158015611930573d6000803e3d6000fd5b505050506040513d6000823e3d601f19601f820116820180604052508101906119599190612bad565b50505050505050565b82805482825590600052602060002090810192821561199e579160200282015b8281111561199d578251825591602001919060010190611982565b5b5090506119ab9190611a39565b5090565b828054828255906000526020600020908101928215611a28579160200282015b82811115611a275782518260006101000a81548173ffffffffffffffffffffffffffffffffffffffff021916908373ffffffffffffffffffffffffffffffffffffffff160217905550916020019190600101906119cf565b5b509050611a359190611a39565b5090565b5b80821115611a52576000816000905550600101611a3a565b5090565b6000604051905090565b600080fd5b600080fd5b6000819050919050565b611a7d81611a6a565b8114611a8857600080fd5b50565b600081359050611a9a81611a74565b92915050565b600080fd5b600080fd5b6000601f19601f8301169050919050565b7f4e487b7100000000000000000000000000000000000000000000000000000000600052604160045260246000fd5b611af382611aaa565b810181811067ffffffffffffffff82111715611b1257611b11611abb565b5b80604052505050565b6000611b25611a56565b9050611b318282611aea565b919050565b600067ffffffffffffffff821115611b5157611b50611abb565b5b611b5a82611aaa565b9050602081019050919050565b82818337600083830152505050565b6000611b89611b8484611b36565b611b1b565b905082815260208101848484011115611ba557611ba4611aa5565b5b611bb0848285611b67565b509392505050565b600082601f830112611bcd57611bcc611aa0565b5b8135611bdd848260208601611b76565b91505092915050565b60008060408385031215611bfd57611bfc611a60565b5b6000611c0b85828601611a8b565b925050602083013567ffffffffffffffff811115611c2c57611c2b611a65565b5b611c3885828601611bb8565b9150509250929050565b600060208284031215611c5857611c57611a60565b5b6000611c6684828501611a8b565b91505092915050565b611c7881611a6a565b82525050565b600081519050919050565b600082825260208201905092915050565b60005b83811015611cb8578082015181840152602081019050611c9d565b60008484015250505050565b6000611ccf82611c7e565b611cd98185611c89565b9350611ce9818560208601611c9a565b611cf281611aaa565b840191505092915050565b600073ffffffffffffffffffffffffffffffffffffffff82169050919050565b6000611d2882611cfd565b9050919050565b611d3881611d1d565b82525050565b6000819050919050565b611d5181611d3e565b82525050565b6000819050919050565b6000611d7c611d77611d7284611cfd565b611d57565b611cfd565b9050919050565b6000611d8e82611d61565b9050919050565b6000611da082611d83565b9050919050565b611db081611d95565b82525050565b600063ffffffff82169050919050565b611dcf81611db6565b82525050565b600061010082019050611deb600083018b611c6f565b8181036020830152611dfd818a611cc4565b9050611e0c6040830189611d2f565b611e196060830188611d48565b611e266080830187611da7565b611e3360a0830186611dc6565b611e4060c0830185611d48565b611e4d60e0830184611d48565b9998505050505050505050565b611e6381611d3e565b8114611e6e57600080fd5b50565b600081359050611e8081611e5a565b92915050565b600080fd5b600080fd5b60008083601f840112611ea657611ea5611aa0565b5b8235905067ffffffffffffffff811115611ec357611ec2611e86565b5b602083019150836001820283011115611edf57611ede611e8b565b5b9250929050565b600080600080600060808688031215611f0257611f01611a60565b5b6000611f1088828901611e71565b9550506020611f2188828901611e71565b9450506040611f3288828901611e71565b935050606086013567ffffffffffffffff811115611f5357611f52611a65565b5b611f5f88828901611e90565b92509250509295509295909350565b611f7781611d1d565b8114611f8257600080fd5b50565b600081359050611f9481611f6e565b92915050565b60008060408385031215611fb157611fb0611a60565b5b6000611fbf85828601611a8b565b9250506020611fd085828601611f85565b9150509250929050565b7f464f4e54204e4f5420464f554e44000000000000000000000000000000000000600082015250565b6000612010600e83611c89565b915061201b82611fda565b602082019050919050565b6000602082019050818103600083015261203f81612003565b9050919050565b7f4e4f5420454e4f554748204554482053454e5400000000000000000000000000600082015250565b600061207c601383611c89565b915061208782612046565b602082019050919050565b600060208201905081810360008301526120ab8161206f565b9050919050565b60006020820190506120c76000830184611d2f565b92915050565b60006040820190506120e26000830185611d2f565b81810360208301526120f48184611cc4565b90509392505050565b60008151905061210c81611e5a565b92915050565b60006020828403121561212857612127611a60565b5b6000612136848285016120fd565b91505092915050565b60006040820190506121546000830185611c6f565b6121616020830184611d48565b9392505050565b7f4e487b7100000000000000000000000000000000000000000000000000000000600052602260045260246000fd5b600060028204905060018216806121af57607f821691505b6020821081036121c2576121c1612168565b5b50919050565b60006080820190506121dd6000830187611da7565b6121ea6020830186611d2f565b6121f76040830185611dc6565b6122046060830184611d48565b95945050505050565b60006fffffffffffffffffffffffffffffffff82169050919050565b6122328161220d565b811461223d57600080fd5b50565b60008151905061224f81612229565b92915050565b6000806040838503121561226c5761226b611a60565b5b600061227a858286016120fd565b925050602061228b85828601612240565b9150509250929050565b60008160601b9050919050565b60006122ad82612295565b9050919050565b60006122bf826122a2565b9050919050565b6122d76122d282611d1d565b6122b4565b82525050565b6000819050919050565b6122f86122f382611d3e565b6122dd565b82525050565b600061230a82886122c6565b60148201915061231a82876122c6565b60148201915061232a82866122e7565b60208201915061233a82856122e7565b60208201915061234a82846122e7565b6020820191508190509695505050505050565b7f464f4e5420495320414c52454144592052454749535445524544000000000000600082015250565b6000612393601a83611c89565b915061239e8261235d565b602082019050919050565b600060208201905081810360008301526123c281612386565b9050919050565b7f4e487b7100000000000000000000000000000000000000000000000000000000600052601160045260246000fd5b600061240382611db6565b915061240e83611db6565b9250828201905063ffffffff81111561242a576124296123c9565b5b92915050565b60008190508160005260206000209050919050565b60006020601f8301049050919050565b600082821b905092915050565b6000600883026124927fffffffffffffffffffffffffffffffffffffffffffffffffffffffffffffffff82612455565b61249c8683612455565b95508019841693508086168417925050509392505050565b60006124cf6124ca6124c584611d3e565b611d57565b611d3e565b9050919050565b6000819050919050565b6124e9836124b4565b6124fd6124f5826124d6565b848454612462565b825550505050565b600090565b612512612505565b61251d8184846124e0565b505050565b5b818110156125415761253660008261250a565b600181019050612523565b5050565b601f8211156125865761255781612430565b61256084612445565b8101602085101561256f578190505b61258361257b85612445565b830182612522565b50505b505050565b600082821c905092915050565b60006125a96000198460080261258b565b1980831691505092915050565b60006125c28383612598565b9150826002028217905092915050565b6125db82611c7e565b67ffffffffffffffff8111156125f4576125f3611abb565b5b6125fe8254612197565b612609828285612545565b600060209050601f83116001811461263c576000841561262a578287015190505b61263485826125b6565b86555061269c565b601f19841661264a86612430565b60005b828110156126725784890151825560018201915060208501945060208101905061264d565b8683101561268f578489015161268b601f891682612598565b8355505b6001600288020188555050505b505050505050565b60006126b08385611c89565b93506126bd838584611b67565b6126c683611aaa565b840190509392505050565b600060c0820190506126e6600083018a611c6f565b81810360208301526126f981888a6126a4565b90506127086040830187611d2f565b6127156060830186611d48565b6127226080830185611d48565b61272f60a0830184611d48565b98975050505050505050565b7f4f4e4c5920464f4e542043524541544f522043414e2055504441544520434f4c60008201527f4c41424f5241544f525300000000000000000000000000000000000000000000602082015250565b6000612797602a83611c89565b91506127a28261273b565b604082019050919050565b600060208201905081810360008301526127c68161278a565b9050919050565b7f414c5245414459204120434f4c4c41424f5241544f5200000000000000000000600082015250565b6000612803601683611c89565b915061280e826127cd565b602082019050919050565b60006020820190508181036000830152612832816127f6565b9050919050565b600060ff82169050919050565b600061285182612839565b915061285c83612839565b9250828203905060ff811115612875576128746123c9565b5b92915050565b7f4e487b7100000000000000000000000000000000000000000000000000000000600052603260045260246000fd5b60006128b582611d3e565b91507fffffffffffffffffffffffffffffffffffffffffffffffffffffffffffffffff82036128e7576128e66123c9565b5b600182019050919050565b7f4f4e4c5920464f4e542043524541544f522043414e2055504441544520434f4c60008201527f4c41424f5241544f522050524f46495420444953545249425554494f4e000000602082015250565b600061294e603d83611c89565b9150612959826128f2565b604082019050919050565b6000602082019050818103600083015261297d81612941565b9050919050565b7f4e487b7100000000000000000000000000000000000000000000000000000000600052601260045260246000fd5b60006129be82611d3e565b91506129c983611d3e565b9250826129d9576129d8612984565b5b828204905092915050565b60006129ef82611d83565b9050919050565b6129ff816129e4565b82525050565b600081519050919050565b600082825260208201905092915050565b6000612a2c82612a05565b612a368185612a10565b9350612a46818560208601611c9a565b612a4f81611aaa565b840191505092915050565b6000608082019050612a6f60008301876129f6565b612a7c6020830186611dc6565b612a896040830185611d48565b8181036060830152612a9b8184612a21565b905095945050505050565b6000612ab182611d83565b9050919050565b612ac181612aa6565b82525050565b6000606082019050612adc6000830186612ab8565b8181036020830152612aee8185612a21565b90508181036040830152612b028184612a21565b9050949350505050565b600067ffffffffffffffff821115612b2757612b26611abb565b5b612b3082611aaa565b9050602081019050919050565b6000612b50612b4b84612b0c565b611b1b565b905082815260208101848484011115612b6c57612b6b611aa5565b5b612b77848285611c9a565b509392505050565b600082601f830112612b9457612b93611aa0565b5b8151612ba4848260208601612b3d565b91505092915050565b600060208284031215612bc357612bc2611a60565b5b600082015167ffffffffffffffff811115612be157612be0611a65565b5b612bed84828501612b7f565b91505092915050565b6000606082019050612c0b60008301866129f6565b612c186020830185611dc6565b8181036040830152612c2a8184612a21565b9050949350505050565b612c3d8161220d565b82525050565b600060a082019050612c5860008301886129f6565b612c656020830187611dc6565b612c726040830186611d2f565b612c7f6060830185612c34565b8181036080830152612c918184612a21565b9050969550505050505056fea2646970667358221220ae2d5fdcc143c64f86b9300bdfe9e0237ee5ab3105f1ebfc44f56da6e454820264736f6c6343000810003360806040523480156200001157600080fd5b506040518060400160405280601581526020017f496e746572506c616e6574617279466f6e744e465400000000000000000000008152506040518060400160405280600381526020017f495046000000000000000000000000000000000000000000000000000000000081525081600090816200008f91906200042d565b508060019081620000a191906200042d565b5050506000600760006101000a81548160ff021916908315150217905550620000df620000d3620000e560201b60201c565b620000ed60201b60201c565b62000514565b600033905090565b6000600760019054906101000a900473ffffffffffffffffffffffffffffffffffffffff16905081600760016101000a81548173ffffffffffffffffffffffffffffffffffffffff021916908373ffffffffffffffffffffffffffffffffffffffff1602179055508173ffffffffffffffffffffffffffffffffffffffff168173ffffffffffffffffffffffffffffffffffffffff167f8be0079c531659141344cd1fd0a4f28419497f9722a3daafe3b4186f6b6457e060405160405180910390a35050565b600081519050919050565b7f4e487b7100000000000000000000000000000000000000000000000000000000600052604160045260246000fd5b7f4e487b7100000000000000000000000000000000000000000000000000000000600052602260045260246000fd5b600060028204905060018216806200023557607f821691505b6020821081036200024b576200024a620001ed565b5b50919050565b60008190508160005260206000209050919050565b60006020601f8301049050919050565b600082821b905092915050565b600060088302620002b57fffffffffffffffffffffffffffffffffffffffffffffffffffffffffffffffff8262000276565b620002c1868362000276565b95508019841693508086168417925050509392505050565b6000819050919050565b6000819050919050565b60006200030e620003086200030284620002d9565b620002e3565b620002d9565b9050919050565b6000819050919050565b6200032a83620002ed565b62000342620003398262000315565b84845462000283565b825550505050565b600090565b620003596200034a565b620003668184846200031f565b505050565b5b818110156200038e57620003826000826200034f565b6001810190506200036c565b5050565b601f821115620003dd57620003a78162000251565b620003b28462000266565b81016020851015620003c2578190505b620003da620003d18562000266565b8301826200036b565b50505b505050565b600082821c905092915050565b60006200040260001984600802620003e2565b1980831691505092915050565b60006200041d8383620003ef565b9150826002028217905092915050565b6200043882620001b3565b67ffffffffffffffff811115620004545762000453620001be565b5b6200046082546200021c565b6200046d82828562000392565b600060209050601f831160018114620004a5576000841562000490578287015190505b6200049c85826200040f565b8655506200050c565b601f198416620004b58662000251565b60005b82811015620004df57848901518255600182019150602085019450602081019050620004b8565b86831015620004ff5784890151620004fb601f891682620003ef565b8355505b6001600288020188555050505b505050505050565b61335c80620005246000396000f3fe608060405234801561001057600080fd5b50600436106101375760003560e01c806370a08231116100b8578063a22cb4651161007c578063a22cb46514610302578063b88d4fde1461031e578063c87b56dd1461033a578063d204c45e1461036a578063e985e9c51461039a578063f2fde38b146103ca57610137565b806370a0823114610282578063715018a6146102b25780638456cb59146102bc5780638da5cb5b146102c657806395d89b41146102e457610137565b80633f4ba83a116100ff5780633f4ba83a146101f257806342842e0e146101fc57806342966c68146102185780635c975abb146102345780636352211e1461025257610137565b806301ffc9a71461013c57806306fdde031461016c578063081812fc1461018a578063095ea7b3146101ba57806323b872dd146101d6575b600080fd5b61015660048036038101906101519190611f05565b6103e6565b6040516101639190611f4d565b60405180910390f35b6101746104c8565b6040516101819190611ff8565b60405180910390f35b6101a4600480360381019061019f9190612050565b61055a565b6040516101b191906120be565b60405180910390f35b6101d460048036038101906101cf9190612105565b6105a0565b005b6101f060048036038101906101eb9190612145565b6106b7565b005b6101fa610717565b005b61021660048036038101906102119190612145565b610729565b005b610232600480360381019061022d9190612050565b610749565b005b61023c6107a5565b6040516102499190611f4d565b60405180910390f35b61026c60048036038101906102679190612050565b6107bc565b60405161027991906120be565b60405180910390f35b61029c60048036038101906102979190612198565b61086d565b6040516102a991906121d4565b60405180910390f35b6102ba610924565b005b6102c4610938565b005b6102ce61094a565b6040516102db91906120be565b60405180910390f35b6102ec610974565b6040516102f99190611ff8565b60405180910390f35b61031c6004803603810190610317919061221b565b610a06565b005b61033860048036038101906103339190612390565b610a1c565b005b610354600480360381019061034f9190612050565b610a7e565b6040516103619190611ff8565b60405180910390f35b610384600480360381019061037f91906124b4565b610a90565b60405161039191906121d4565b60405180910390f35b6103b460048036038101906103af9190612510565b610ac7565b6040516103c19190611f4d565b60405180910390f35b6103e460048036038101906103df9190612198565b610b5b565b005b60007f80ac58cd000000000000000000000000000000000000000000000000000000007bffffffffffffffffffffffffffffffffffffffffffffffffffffffff1916827bffffffffffffffffffffffffffffffffffffffffffffffffffffffff191614806104b157507f5b5e139f000000000000000000000000000000000000000000000000000000007bffffffffffffffffffffffffffffffffffffffffffffffffffffffff1916827bffffffffffffffffffffffffffffffffffffffffffffffffffffffff1916145b806104c157506104c082610bde565b5b9050919050565b6060600080546104d79061257f565b80601f01602080910402602001604051908101604052809291908181526020018280546105039061257f565b80156105505780601f1061052557610100808354040283529160200191610550565b820191906000526020600020905b81548152906001019060200180831161053357829003601f168201915b5050505050905090565b600061056582610c48565b6004600083815260200190815260200160002060009054906101000a900473ffffffffffffffffffffffffffffffffffffffff169050919050565b60006105ab826107bc565b90508073ffffffffffffffffffffffffffffffffffffffff168373ffffffffffffffffffffffffffffffffffffffff160361061b576040517f08c379a000000000000000000000000000000000000000000000000000000000815260040161061290612622565b60405180910390fd5b8073ffffffffffffffffffffffffffffffffffffffff1661063a610c93565b73ffffffffffffffffffffffffffffffffffffffff161480610669575061066881610663610c93565b610ac7565b5b6106a8576040517f08c379a000000000000000000000000000000000000000000000000000000000815260040161069f906126b4565b60405180910390fd5b6106b28383610c9b565b505050565b6106c86106c2610c93565b82610d54565b610707576040517f08c379a00000000000000000000000000000000000000000000000000000000081526004016106fe90612746565b60405180910390fd5b610712838383610de9565b505050565b61071f61104f565b6107276110cd565b565b61074483838360405180602001604052806000815250610a1c565b505050565b61075a610754610c93565b82610d54565b610799576040517f08c379a000000000000000000000000000000000000000000000000000000000815260040161079090612746565b60405180910390fd5b6107a281611130565b50565b6000600760009054906101000a900460ff16905090565b6000806002600084815260200190815260200160002060009054906101000a900473ffffffffffffffffffffffffffffffffffffffff169050600073ffffffffffffffffffffffffffffffffffffffff168173ffffffffffffffffffffffffffffffffffffffff1603610864576040517f08c379a000000000000000000000000000000000000000000000000000000000815260040161085b906127b2565b60405180910390fd5b80915050919050565b60008073ffffffffffffffffffffffffffffffffffffffff168273ffffffffffffffffffffffffffffffffffffffff16036108dd576040517f08c379a00000000000000000000000000000000000000000000000000000000081526004016108d490612844565b60405180910390fd5b600360008373ffffffffffffffffffffffffffffffffffffffff1673ffffffffffffffffffffffffffffffffffffffff168152602001908152602001600020549050919050565b61092c61104f565b610936600061113c565b565b61094061104f565b610948611202565b565b6000600760019054906101000a900473ffffffffffffffffffffffffffffffffffffffff16905090565b6060600180546109839061257f565b80601f01602080910402602001604051908101604052809291908181526020018280546109af9061257f565b80156109fc5780601f106109d1576101008083540402835291602001916109fc565b820191906000526020600020905b8154815290600101906020018083116109df57829003601f168201915b5050505050905090565b610a18610a11610c93565b8383611265565b5050565b610a2d610a27610c93565b83610d54565b610a6c576040517f08c379a0000000000000000000000000000000000000000000000000000000008152600401610a6390612746565b60405180910390fd5b610a78848484846113d1565b50505050565b6060610a898261142d565b9050919050565b600080610a9d600861153f565b9050610aa9600861154d565b610ab38482611563565b610abd8184611581565b8091505092915050565b6000600560008473ffffffffffffffffffffffffffffffffffffffff1673ffffffffffffffffffffffffffffffffffffffff16815260200190815260200160002060008373ffffffffffffffffffffffffffffffffffffffff1673ffffffffffffffffffffffffffffffffffffffff16815260200190815260200160002060009054906101000a900460ff16905092915050565b610b6361104f565b600073ffffffffffffffffffffffffffffffffffffffff168173ffffffffffffffffffffffffffffffffffffffff1603610bd2576040517f08c379a0000000000000000000000000000000000000000000000000000000008152600401610bc9906128d6565b60405180910390fd5b610bdb8161113c565b50565b60007f01ffc9a7000000000000000000000000000000000000000000000000000000007bffffffffffffffffffffffffffffffffffffffffffffffffffffffff1916827bffffffffffffffffffffffffffffffffffffffffffffffffffffffff1916149050919050565b610c51816115ee565b610c90576040517f08c379a0000000000000000000000000000000000000000000000000000000008152600401610c87906127b2565b60405180910390fd5b50565b600033905090565b816004600083815260200190815260200160002060006101000a81548173ffffffffffffffffffffffffffffffffffffffff021916908373ffffffffffffffffffffffffffffffffffffffff160217905550808273ffffffffffffffffffffffffffffffffffffffff16610d0e836107bc565b73ffffffffffffffffffffffffffffffffffffffff167f8c5be1e5ebec7d5bd14f71427d1e84f3dd0314c0f7b2291e5b200ac8c7c3b92560405160405180910390a45050565b600080610d60836107bc565b90508073ffffffffffffffffffffffffffffffffffffffff168473ffffffffffffffffffffffffffffffffffffffff161480610da25750610da18185610ac7565b5b80610de057508373ffffffffffffffffffffffffffffffffffffffff16610dc88461055a565b73ffffffffffffffffffffffffffffffffffffffff16145b91505092915050565b8273ffffffffffffffffffffffffffffffffffffffff16610e09826107bc565b73ffffffffffffffffffffffffffffffffffffffff1614610e5f576040517f08c379a0000000000000000000000000000000000000000000000000000000008152600401610e5690612968565b60405180910390fd5b600073ffffffffffffffffffffffffffffffffffffffff168273ffffffffffffffffffffffffffffffffffffffff1603610ece576040517f08c379a0000000000000000000000000000000000000000000000000000000008152600401610ec5906129fa565b60405180910390fd5b610ed983838361165a565b610ee4600082610c9b565b6001600360008573ffffffffffffffffffffffffffffffffffffffff1673ffffffffffffffffffffffffffffffffffffffff1681526020019081526020016000206000828254610f349190612a49565b925050819055506001600360008473ffffffffffffffffffffffffffffffffffffffff1673ffffffffffffffffffffffffffffffffffffffff1681526020019081526020016000206000828254610f8b9190612a7d565b92505081905550816002600083815260200190815260200160002060006101000a81548173ffffffffffffffffffffffffffffffffffffffff021916908373ffffffffffffffffffffffffffffffffffffffff160217905550808273ffffffffffffffffffffffffffffffffffffffff168473ffffffffffffffffffffffffffffffffffffffff167fddf252ad1be2c89b69c2b068fc378daa952ba7f163c4a11628f55a4df523b3ef60405160405180910390a461104a838383611672565b505050565b611057610c93565b73ffffffffffffffffffffffffffffffffffffffff1661107561094a565b73ffffffffffffffffffffffffffffffffffffffff16146110cb576040517f08c379a00000000000000000000000000000000000000000000000000000000081526004016110c290612afd565b60405180910390fd5b565b6110d5611677565b6000600760006101000a81548160ff0219169083151502179055507f5db9ee0a495bf2e6ff9c91a7834c1ba4fdd244a5e8aa4e537bd38aeae4b073aa611119610c93565b60405161112691906120be565b60405180910390a1565b611139816116c0565b50565b6000600760019054906101000a900473ffffffffffffffffffffffffffffffffffffffff16905081600760016101000a81548173ffffffffffffffffffffffffffffffffffffffff021916908373ffffffffffffffffffffffffffffffffffffffff1602179055508173ffffffffffffffffffffffffffffffffffffffff168173ffffffffffffffffffffffffffffffffffffffff167f8be0079c531659141344cd1fd0a4f28419497f9722a3daafe3b4186f6b6457e060405160405180910390a35050565b61120a611713565b6001600760006101000a81548160ff0219169083151502179055507f62e78cea01bee320cd4e420270b5ea74000d11b0c9f74754ebdbfc544b05a25861124e610c93565b60405161125b91906120be565b60405180910390a1565b8173ffffffffffffffffffffffffffffffffffffffff168373ffffffffffffffffffffffffffffffffffffffff16036112d3576040517f08c379a00000000000000000000000000000000000000000000000000000000081526004016112ca90612b69565b60405180910390fd5b80600560008573ffffffffffffffffffffffffffffffffffffffff1673ffffffffffffffffffffffffffffffffffffffff16815260200190815260200160002060008473ffffffffffffffffffffffffffffffffffffffff1673ffffffffffffffffffffffffffffffffffffffff16815260200190815260200160002060006101000a81548160ff0219169083151502179055508173ffffffffffffffffffffffffffffffffffffffff168373ffffffffffffffffffffffffffffffffffffffff167f17307eab39ab6107e8899845ad3d59bd9653f200f220920489ca2b5937696c31836040516113c49190611f4d565b60405180910390a3505050565b6113dc848484610de9565b6113e88484848461175d565b611427576040517f08c379a000000000000000000000000000000000000000000000000000000000815260040161141e90612bfb565b60405180910390fd5b50505050565b606061143882610c48565b60006006600084815260200190815260200160002080546114589061257f565b80601f01602080910402602001604051908101604052809291908181526020018280546114849061257f565b80156114d15780601f106114a6576101008083540402835291602001916114d1565b820191906000526020600020905b8154815290600101906020018083116114b457829003601f168201915b5050505050905060006114e26118e4565b905060008151036114f757819250505061153a565b60008251111561152c578082604051602001611514929190612c57565b6040516020818303038152906040529250505061153a565b611535846118fb565b925050505b919050565b600081600001549050919050565b6001816000016000828254019250508190555050565b61157d828260405180602001604052806000815250611963565b5050565b61158a826115ee565b6115c9576040517f08c379a00000000000000000000000000000000000000000000000000000000081526004016115c090612ced565b60405180910390fd5b806006600084815260200190815260200160002090816115e99190612eb9565b505050565b60008073ffffffffffffffffffffffffffffffffffffffff166002600084815260200190815260200160002060009054906101000a900473ffffffffffffffffffffffffffffffffffffffff1673ffffffffffffffffffffffffffffffffffffffff1614159050919050565b611662611713565b61166d8383836119be565b505050565b505050565b61167f6107a5565b6116be576040517f08c379a00000000000000000000000000000000000000000000000000000000081526004016116b590612fd7565b60405180910390fd5b565b6116c9816119c3565b60006006600083815260200190815260200160002080546116e99061257f565b9050146117105760066000828152602001908152602001600020600061170f9190611e3c565b5b50565b61171b6107a5565b1561175b576040517f08c379a000000000000000000000000000000000000000000000000000000000815260040161175290613043565b60405180910390fd5b565b600061177e8473ffffffffffffffffffffffffffffffffffffffff16611ae0565b156118d7578373ffffffffffffffffffffffffffffffffffffffff1663150b7a026117a7610c93565b8786866040518563ffffffff1660e01b81526004016117c994939291906130b8565b6020604051808303816000875af192505050801561180557506040513d601f19601f820116820180604052508101906118029190613119565b60015b611887573d8060008114611835576040519150601f19603f3d011682016040523d82523d6000602084013e61183a565b606091505b50600081510361187f576040517f08c379a000000000000000000000000000000000000000000000000000000000815260040161187690612bfb565b60405180910390fd5b805181602001fd5b63150b7a0260e01b7bffffffffffffffffffffffffffffffffffffffffffffffffffffffff1916817bffffffffffffffffffffffffffffffffffffffffffffffffffffffff1916149150506118dc565b600190505b949350505050565b606060405180602001604052806000815250905090565b606061190682610c48565b60006119106118e4565b90506000815111611930576040518060200160405280600081525061195b565b8061193a84611b03565b60405160200161194b929190612c57565b6040516020818303038152906040525b915050919050565b61196d8383611c63565b61197a600084848461175d565b6119b9576040517f08c379a00000000000000000000000000000000000000000000000000000000081526004016119b090612bfb565b60405180910390fd5b505050565b505050565b60006119ce826107bc565b90506119dc8160008461165a565b6119e7600083610c9b565b6001600360008373ffffffffffffffffffffffffffffffffffffffff1673ffffffffffffffffffffffffffffffffffffffff1681526020019081526020016000206000828254611a379190612a49565b925050819055506002600083815260200190815260200160002060006101000a81549073ffffffffffffffffffffffffffffffffffffffff021916905581600073ffffffffffffffffffffffffffffffffffffffff168273ffffffffffffffffffffffffffffffffffffffff167fddf252ad1be2c89b69c2b068fc378daa952ba7f163c4a11628f55a4df523b3ef60405160405180910390a4611adc81600084611672565b5050565b6000808273ffffffffffffffffffffffffffffffffffffffff163b119050919050565b606060008203611b4a576040518060400160405280600181526020017f30000000000000000000000000000000000000000000000000000000000000008152509050611c5e565b600082905060005b60008214611b7c578080611b6590613146565b915050600a82611b7591906131bd565b9150611b52565b60008167ffffffffffffffff811115611b9857611b97612265565b5b6040519080825280601f01601f191660200182016040528015611bca5781602001600182028036833780820191505090505b5090505b60008514611c5757600182611be39190612a49565b9150600a85611bf291906131ee565b6030611bfe9190612a7d565b60f81b818381518110611c1457611c1361321f565b5b60200101907effffffffffffffffffffffffffffffffffffffffffffffffffffffffffffff1916908160001a905350600a85611c5091906131bd565b9450611bce565b8093505050505b919050565b600073ffffffffffffffffffffffffffffffffffffffff168273ffffffffffffffffffffffffffffffffffffffff1603611cd2576040517f08c379a0000000000000000000000000000000000000000000000000000000008152600401611cc99061329a565b60405180910390fd5b611cdb816115ee565b15611d1b576040517f08c379a0000000000000000000000000000000000000000000000000000000008152600401611d1290613306565b60405180910390fd5b611d276000838361165a565b6001600360008473ffffffffffffffffffffffffffffffffffffffff1673ffffffffffffffffffffffffffffffffffffffff1681526020019081526020016000206000828254611d779190612a7d565b92505081905550816002600083815260200190815260200160002060006101000a81548173ffffffffffffffffffffffffffffffffffffffff021916908373ffffffffffffffffffffffffffffffffffffffff160217905550808273ffffffffffffffffffffffffffffffffffffffff16600073ffffffffffffffffffffffffffffffffffffffff167fddf252ad1be2c89b69c2b068fc378daa952ba7f163c4a11628f55a4df523b3ef60405160405180910390a4611e3860008383611672565b5050565b508054611e489061257f565b6000825580601f10611e5a5750611e79565b601f016020900490600052602060002090810190611e789190611e7c565b5b50565b5b80821115611e95576000816000905550600101611e7d565b5090565b6000604051905090565b600080fd5b600080fd5b60007fffffffff0000000000000000000000000000000000000000000000000000000082169050919050565b611ee281611ead565b8114611eed57600080fd5b50565b600081359050611eff81611ed9565b92915050565b600060208284031215611f1b57611f1a611ea3565b5b6000611f2984828501611ef0565b91505092915050565b60008115159050919050565b611f4781611f32565b82525050565b6000602082019050611f626000830184611f3e565b92915050565b600081519050919050565b600082825260208201905092915050565b60005b83811015611fa2578082015181840152602081019050611f87565b60008484015250505050565b6000601f19601f8301169050919050565b6000611fca82611f68565b611fd48185611f73565b9350611fe4818560208601611f84565b611fed81611fae565b840191505092915050565b600060208201905081810360008301526120128184611fbf565b905092915050565b6000819050919050565b61202d8161201a565b811461203857600080fd5b50565b60008135905061204a81612024565b92915050565b60006020828403121561206657612065611ea3565b5b60006120748482850161203b565b91505092915050565b600073ffffffffffffffffffffffffffffffffffffffff82169050919050565b60006120a88261207d565b9050919050565b6120b88161209d565b82525050565b60006020820190506120d360008301846120af565b92915050565b6120e28161209d565b81146120ed57600080fd5b50565b6000813590506120ff816120d9565b92915050565b6000806040838503121561211c5761211b611ea3565b5b600061212a858286016120f0565b925050602061213b8582860161203b565b9150509250929050565b60008060006060848603121561215e5761215d611ea3565b5b600061216c868287016120f0565b935050602061217d868287016120f0565b925050604061218e8682870161203b565b9150509250925092565b6000602082840312156121ae576121ad611ea3565b5b60006121bc848285016120f0565b91505092915050565b6121ce8161201a565b82525050565b60006020820190506121e960008301846121c5565b92915050565b6121f881611f32565b811461220357600080fd5b50565b600081359050612215816121ef565b92915050565b6000806040838503121561223257612231611ea3565b5b6000612240858286016120f0565b925050602061225185828601612206565b9150509250929050565b600080fd5b600080fd5b7f4e487b7100000000000000000000000000000000000000000000000000000000600052604160045260246000fd5b61229d82611fae565b810181811067ffffffffffffffff821117156122bc576122bb612265565b5b80604052505050565b60006122cf611e99565b90506122db8282612294565b919050565b600067ffffffffffffffff8211156122fb576122fa612265565b5b61230482611fae565b9050602081019050919050565b82818337600083830152505050565b600061233361232e846122e0565b6122c5565b90508281526020810184848401111561234f5761234e612260565b5b61235a848285612311565b509392505050565b600082601f8301126123775761237661225b565b5b8135612387848260208601612320565b91505092915050565b600080600080608085870312156123aa576123a9611ea3565b5b60006123b8878288016120f0565b94505060206123c9878288016120f0565b93505060406123da8782880161203b565b925050606085013567ffffffffffffffff8111156123fb576123fa611ea8565b5b61240787828801612362565b91505092959194509250565b600067ffffffffffffffff82111561242e5761242d612265565b5b61243782611fae565b9050602081019050919050565b600061245761245284612413565b6122c5565b90508281526020810184848401111561247357612472612260565b5b61247e848285612311565b509392505050565b600082601f83011261249b5761249a61225b565b5b81356124ab848260208601612444565b91505092915050565b600080604083850312156124cb576124ca611ea3565b5b60006124d9858286016120f0565b925050602083013567ffffffffffffffff8111156124fa576124f9611ea8565b5b61250685828601612486565b9150509250929050565b6000806040838503121561252757612526611ea3565b5b6000612535858286016120f0565b9250506020612546858286016120f0565b9150509250929050565b7f4e487b7100000000000000000000000000000000000000000000000000000000600052602260045260246000fd5b6000600282049050600182168061259757607f821691505b6020821081036125aa576125a9612550565b5b50919050565b7f4552433732313a20617070726f76616c20746f2063757272656e74206f776e6560008201527f7200000000000000000000000000000000000000000000000000000000000000602082015250565b600061260c602183611f73565b9150612617826125b0565b604082019050919050565b6000602082019050818103600083015261263b816125ff565b9050919050565b7f4552433732313a20617070726f76652063616c6c6572206973206e6f7420746f60008201527f6b656e206f776e6572206e6f7220617070726f76656420666f7220616c6c0000602082015250565b600061269e603e83611f73565b91506126a982612642565b604082019050919050565b600060208201905081810360008301526126cd81612691565b9050919050565b7f4552433732313a2063616c6c6572206973206e6f7420746f6b656e206f776e6560008201527f72206e6f7220617070726f766564000000000000000000000000000000000000602082015250565b6000612730602e83611f73565b915061273b826126d4565b604082019050919050565b6000602082019050818103600083015261275f81612723565b9050919050565b7f4552433732313a20696e76616c696420746f6b656e2049440000000000000000600082015250565b600061279c601883611f73565b91506127a782612766565b602082019050919050565b600060208201905081810360008301526127cb8161278f565b9050919050565b7f4552433732313a2061646472657373207a65726f206973206e6f74206120766160008201527f6c6964206f776e65720000000000000000000000000000000000000000000000602082015250565b600061282e602983611f73565b9150612839826127d2565b604082019050919050565b6000602082019050818103600083015261285d81612821565b9050919050565b7f4f776e61626c653a206e6577206f776e657220697320746865207a65726f206160008201527f6464726573730000000000000000000000000000000000000000000000000000602082015250565b60006128c0602683611f73565b91506128cb82612864565b604082019050919050565b600060208201905081810360008301526128ef816128b3565b9050919050565b7f4552433732313a207472616e736665722066726f6d20696e636f72726563742060008201527f6f776e6572000000000000000000000000000000000000000000000000000000602082015250565b6000612952602583611f73565b915061295d826128f6565b604082019050919050565b6000602082019050818103600083015261298181612945565b9050919050565b7f4552433732313a207472616e7366657220746f20746865207a65726f2061646460008201527f7265737300000000000000000000000000000000000000000000000000000000602082015250565b60006129e4602483611f73565b91506129ef82612988565b604082019050919050565b60006020820190508181036000830152612a13816129d7565b9050919050565b7f4e487b7100000000000000000000000000000000000000000000000000000000600052601160045260246000fd5b6000612a548261201a565b9150612a5f8361201a565b9250828203905081811115612a7757612a76612a1a565b5b92915050565b6000612a888261201a565b9150612a938361201a565b9250828201905080821115612aab57612aaa612a1a565b5b92915050565b7f4f776e61626c653a2063616c6c6572206973206e6f7420746865206f776e6572600082015250565b6000612ae7602083611f73565b9150612af282612ab1565b602082019050919050565b60006020820190508181036000830152612b1681612ada565b9050919050565b7f4552433732313a20617070726f766520746f2063616c6c657200000000000000600082015250565b6000612b53601983611f73565b9150612b5e82612b1d565b602082019050919050565b60006020820190508181036000830152612b8281612b46565b9050919050565b7f4552433732313a207472616e7366657220746f206e6f6e20455243373231526560008201527f63656976657220696d706c656d656e7465720000000000000000000000000000602082015250565b6000612be5603283611f73565b9150612bf082612b89565b604082019050919050565b60006020820190508181036000830152612c1481612bd8565b9050919050565b600081905092915050565b6000612c3182611f68565b612c3b8185612c1b565b9350612c4b818560208601611f84565b80840191505092915050565b6000612c638285612c26565b9150612c6f8284612c26565b91508190509392505050565b7f45524337323155524953746f726167653a2055524920736574206f66206e6f6e60008201527f6578697374656e7420746f6b656e000000000000000000000000000000000000602082015250565b6000612cd7602e83611f73565b9150612ce282612c7b565b604082019050919050565b60006020820190508181036000830152612d0681612cca565b9050919050565b60008190508160005260206000209050919050565b60006020601f8301049050919050565b600082821b905092915050565b600060088302612d6f7fffffffffffffffffffffffffffffffffffffffffffffffffffffffffffffffff82612d32565b612d798683612d32565b95508019841693508086168417925050509392505050565b6000819050919050565b6000612db6612db1612dac8461201a565b612d91565b61201a565b9050919050565b6000819050919050565b612dd083612d9b565b612de4612ddc82612dbd565b848454612d3f565b825550505050565b600090565b612df9612dec565b612e04818484612dc7565b505050565b5b81811015612e2857612e1d600082612df1565b600181019050612e0a565b5050565b601f821115612e6d57612e3e81612d0d565b612e4784612d22565b81016020851015612e56578190505b612e6a612e6285612d22565b830182612e09565b50505b505050565b600082821c905092915050565b6000612e9060001984600802612e72565b1980831691505092915050565b6000612ea98383612e7f565b9150826002028217905092915050565b612ec282611f68565b67ffffffffffffffff811115612edb57612eda612265565b5b612ee5825461257f565b612ef0828285612e2c565b600060209050601f831160018114612f235760008415612f11578287015190505b612f1b8582612e9d565b865550612f83565b601f198416612f3186612d0d565b60005b82811015612f5957848901518255600182019150602085019450602081019050612f34565b86831015612f765784890151612f72601f891682612e7f565b8355505b6001600288020188555050505b505050505050565b7f5061757361626c653a206e6f7420706175736564000000000000000000000000600082015250565b6000612fc1601483611f73565b9150612fcc82612f8b565b602082019050919050565b60006020820190508181036000830152612ff081612fb4565b9050919050565b7f5061757361626c653a2070617573656400000000000000000000000000000000600082015250565b600061302d601083611f73565b915061303882612ff7565b602082019050919050565b6000602082019050818103600083015261305c81613020565b9050919050565b600081519050919050565b600082825260208201905092915050565b600061308a82613063565b613094818561306e565b93506130a4818560208601611f84565b6130ad81611fae565b840191505092915050565b60006080820190506130cd60008301876120af565b6130da60208301866120af565b6130e760408301856121c5565b81810360608301526130f9818461307f565b905095945050505050565b60008151905061311381611ed9565b92915050565b60006020828403121561312f5761312e611ea3565b5b600061313d84828501613104565b91505092915050565b60006131518261201a565b91507fffffffffffffffffffffffffffffffffffffffffffffffffffffffffffffffff820361318357613182612a1a565b5b600182019050919050565b7f4e487b7100000000000000000000000000000000000000000000000000000000600052601260045260246000fd5b60006131c88261201a565b91506131d38361201a565b9250826131e3576131e261318e565b5b828204905092915050565b60006131f98261201a565b91506132048361201a565b9250826132145761321361318e565b5b828206905092915050565b7f4e487b7100000000000000000000000000000000000000000000000000000000600052603260045260246000fd5b7f4552433732313a206d696e7420746f20746865207a65726f2061646472657373600082015250565b6000613284602083611f73565b915061328f8261324e565b602082019050919050565b600060208201905081810360008301526132b381613277565b9050919050565b7f4552433732313a20746f6b656e20616c7265616479206d696e74656400000000600082015250565b60006132f0601c83611f73565b91506132fb826132ba565b602082019050919050565b6000602082019050818103600083015261331f816132e3565b905091905056fea2646970667358221220e98f3367e771b31e370f8dc3d62ad9585655402a4a85bcad81c9b406c396f04164736f6c63430008100033",
  "linkReferences": {},
  "deployedLinkReferences": {}
}